{
  "_format": "hh-sol-artifact-1",
  "contractName": "NewNFTMarketplace",
  "sourceName": "contracts/NewNFTMarket.sol",
  "abi": [
    {
      "inputs": [],
      "stateMutability": "nonpayable",
      "type": "constructor"
    },
    {
      "anonymous": false,
      "inputs": [
        {
          "indexed": true,
          "internalType": "address",
          "name": "owner",
          "type": "address"
        },
        {
          "indexed": true,
          "internalType": "address",
          "name": "approved",
          "type": "address"
        },
        {
          "indexed": true,
          "internalType": "uint256",
          "name": "tokenId",
          "type": "uint256"
        }
      ],
      "name": "Approval",
      "type": "event"
    },
    {
      "anonymous": false,
      "inputs": [
        {
          "indexed": true,
          "internalType": "address",
          "name": "owner",
          "type": "address"
        },
        {
          "indexed": true,
          "internalType": "address",
          "name": "operator",
          "type": "address"
        },
        {
          "indexed": false,
          "internalType": "bool",
          "name": "approved",
          "type": "bool"
        }
      ],
      "name": "ApprovalForAll",
      "type": "event"
    },
    {
      "anonymous": false,
      "inputs": [
        {
          "indexed": true,
          "internalType": "uint256",
          "name": "tokenId",
          "type": "uint256"
        },
        {
          "indexed": false,
          "internalType": "string",
          "name": "name",
          "type": "string"
        },
        {
          "indexed": false,
          "internalType": "address",
          "name": "seller",
          "type": "address"
        },
        {
          "indexed": false,
          "internalType": "address",
          "name": "owner",
          "type": "address"
        },
        {
          "indexed": false,
          "internalType": "uint256",
          "name": "price",
          "type": "uint256"
        },
        {
          "indexed": false,
          "internalType": "bool",
          "name": "sold",
          "type": "bool"
        },
        {
          "indexed": false,
          "internalType": "uint256",
          "name": "timestamp",
          "type": "uint256"
        },
        {
          "indexed": false,
          "internalType": "address",
          "name": "oldSeller",
          "type": "address"
        }
      ],
      "name": "MarketItemCreated",
      "type": "event"
    },
    {
      "anonymous": false,
      "inputs": [
        {
          "indexed": true,
          "internalType": "uint256",
          "name": "transactionId",
          "type": "uint256"
        },
        {
          "indexed": false,
          "internalType": "uint256",
          "name": "tokenId",
          "type": "uint256"
        },
        {
          "indexed": false,
          "internalType": "address",
          "name": "owner",
          "type": "address"
        },
        {
          "indexed": false,
          "internalType": "address",
          "name": "seller",
          "type": "address"
        },
        {
          "indexed": false,
          "internalType": "uint256",
          "name": "cost",
          "type": "uint256"
        },
        {
          "indexed": false,
          "internalType": "string",
          "name": "metadataURI",
          "type": "string"
        },
        {
          "indexed": false,
          "internalType": "uint256",
          "name": "timestamp",
          "type": "uint256"
        }
      ],
      "name": "TransactionCreate",
      "type": "event"
    },
    {
      "anonymous": false,
      "inputs": [
        {
          "indexed": true,
          "internalType": "address",
          "name": "from",
          "type": "address"
        },
        {
          "indexed": true,
          "internalType": "address",
          "name": "to",
          "type": "address"
        },
        {
          "indexed": true,
          "internalType": "uint256",
          "name": "tokenId",
          "type": "uint256"
        }
      ],
      "name": "Transfer",
      "type": "event"
    },
    {
      "anonymous": false,
      "inputs": [
        {
          "indexed": true,
          "internalType": "uint256",
          "name": "userId",
          "type": "uint256"
        },
        {
          "indexed": false,
          "internalType": "address",
          "name": "owner",
          "type": "address"
        },
        {
          "indexed": false,
          "internalType": "string",
          "name": "name",
          "type": "string"
        },
        {
          "indexed": false,
          "internalType": "string",
          "name": "image",
          "type": "string"
        }
      ],
      "name": "userCreated",
      "type": "event"
    },
    {
      "inputs": [
        {
          "internalType": "address",
          "name": "to",
          "type": "address"
        },
        {
          "internalType": "uint256",
          "name": "tokenId",
          "type": "uint256"
        }
      ],
      "name": "approve",
      "outputs": [],
      "stateMutability": "nonpayable",
      "type": "function"
    },
    {
      "inputs": [
        {
          "internalType": "address",
          "name": "owner",
          "type": "address"
        }
      ],
      "name": "balanceOf",
      "outputs": [
        {
          "internalType": "uint256",
          "name": "",
          "type": "uint256"
        }
      ],
      "stateMutability": "view",
      "type": "function"
    },
    {
      "inputs": [
        {
          "internalType": "string",
          "name": "_username",
          "type": "string"
        }
      ],
      "name": "changeItemName",
      "outputs": [],
      "stateMutability": "nonpayable",
      "type": "function"
    },
    {
      "inputs": [
        {
          "internalType": "uint256",
          "name": "userId",
          "type": "uint256"
        },
        {
          "internalType": "string",
          "name": "_username",
          "type": "string"
        }
      ],
      "name": "changeName",
      "outputs": [],
      "stateMutability": "nonpayable",
      "type": "function"
    },
    {
      "inputs": [
        {
          "internalType": "uint256",
          "name": "userId",
          "type": "uint256"
        },
        {
          "internalType": "string",
          "name": "_image",
          "type": "string"
        }
      ],
      "name": "changeProfileImage",
      "outputs": [],
      "stateMutability": "nonpayable",
      "type": "function"
    },
    {
      "inputs": [
        {
          "internalType": "uint256",
          "name": "tokenId",
          "type": "uint256"
        }
      ],
      "name": "createMarketSale",
      "outputs": [],
      "stateMutability": "payable",
      "type": "function"
    },
    {
      "inputs": [
        {
          "internalType": "string",
          "name": "tokenURI",
          "type": "string"
        },
        {
          "internalType": "uint256",
          "name": "price",
          "type": "uint256"
        },
        {
          "internalType": "string",
          "name": "name",
          "type": "string"
        }
      ],
      "name": "createToken",
      "outputs": [
        {
          "internalType": "uint256",
          "name": "",
          "type": "uint256"
        }
      ],
      "stateMutability": "payable",
      "type": "function"
    },
    {
      "inputs": [
        {
          "internalType": "string",
          "name": "_username",
          "type": "string"
        },
        {
          "internalType": "string",
          "name": "_image",
          "type": "string"
        }
      ],
      "name": "createUser",
      "outputs": [],
      "stateMutability": "nonpayable",
      "type": "function"
    },
    {
      "inputs": [],
      "name": "fetchItemsListed",
      "outputs": [
        {
          "components": [
            {
              "internalType": "uint256",
              "name": "tokenId",
              "type": "uint256"
            },
            {
              "internalType": "string",
              "name": "name",
              "type": "string"
            },
            {
              "internalType": "address payable",
              "name": "seller",
              "type": "address"
            },
            {
              "internalType": "address payable",
              "name": "owner",
              "type": "address"
            },
            {
              "internalType": "uint256",
              "name": "price",
              "type": "uint256"
            },
            {
              "internalType": "bool",
              "name": "sold",
              "type": "bool"
            },
            {
              "internalType": "uint256",
              "name": "timestamp",
              "type": "uint256"
            },
            {
              "internalType": "address",
              "name": "oldSeller",
              "type": "address"
            }
          ],
          "internalType": "struct NewNFTMarketplace.MarketItem[]",
          "name": "",
          "type": "tuple[]"
        }
      ],
      "stateMutability": "view",
      "type": "function"
    },
    {
      "inputs": [],
      "name": "fetchMarketItems",
      "outputs": [
        {
          "components": [
            {
              "internalType": "uint256",
              "name": "tokenId",
              "type": "uint256"
            },
            {
              "internalType": "string",
              "name": "name",
              "type": "string"
            },
            {
              "internalType": "address payable",
              "name": "seller",
              "type": "address"
            },
            {
              "internalType": "address payable",
              "name": "owner",
              "type": "address"
            },
            {
              "internalType": "uint256",
              "name": "price",
              "type": "uint256"
            },
            {
              "internalType": "bool",
              "name": "sold",
              "type": "bool"
            },
            {
              "internalType": "uint256",
              "name": "timestamp",
              "type": "uint256"
            },
            {
              "internalType": "address",
              "name": "oldSeller",
              "type": "address"
            }
          ],
          "internalType": "struct NewNFTMarketplace.MarketItem[]",
          "name": "",
          "type": "tuple[]"
        }
      ],
      "stateMutability": "view",
      "type": "function"
    },
    {
      "inputs": [
        {
          "internalType": "address",
          "name": "add",
          "type": "address"
        }
      ],
      "name": "fetchMyNFTS",
      "outputs": [
        {
          "components": [
            {
              "internalType": "uint256",
              "name": "tokenId",
              "type": "uint256"
            },
            {
              "internalType": "string",
              "name": "name",
              "type": "string"
            },
            {
              "internalType": "address payable",
              "name": "seller",
              "type": "address"
            },
            {
              "internalType": "address payable",
              "name": "owner",
              "type": "address"
            },
            {
              "internalType": "uint256",
              "name": "price",
              "type": "uint256"
            },
            {
              "internalType": "bool",
              "name": "sold",
              "type": "bool"
            },
            {
              "internalType": "uint256",
              "name": "timestamp",
              "type": "uint256"
            },
            {
              "internalType": "address",
              "name": "oldSeller",
              "type": "address"
            }
          ],
          "internalType": "struct NewNFTMarketplace.MarketItem[]",
          "name": "",
          "type": "tuple[]"
        }
      ],
      "stateMutability": "view",
      "type": "function"
    },
    {
      "inputs": [
        {
          "internalType": "uint256",
          "name": "tokenId",
          "type": "uint256"
        }
      ],
      "name": "getApproved",
      "outputs": [
        {
          "internalType": "address",
          "name": "",
          "type": "address"
        }
      ],
      "stateMutability": "view",
      "type": "function"
    },
    {
      "inputs": [],
      "name": "getListingPrice",
      "outputs": [
        {
          "internalType": "uint256",
          "name": "",
          "type": "uint256"
        }
      ],
      "stateMutability": "view",
      "type": "function"
    },
    {
      "inputs": [
        {
          "internalType": "address",
          "name": "_address",
          "type": "address"
        }
      ],
      "name": "getName",
      "outputs": [
        {
          "internalType": "string",
          "name": "name",
          "type": "string"
        },
        {
          "internalType": "uint256",
          "name": "userId",
          "type": "uint256"
        },
        {
          "internalType": "string",
          "name": "image",
          "type": "string"
        }
      ],
      "stateMutability": "view",
      "type": "function"
    },
    {
      "inputs": [
        {
          "internalType": "uint256",
          "name": "tokenId",
          "type": "uint256"
        }
      ],
      "name": "getTransaction",
      "outputs": [
        {
          "components": [
            {
              "internalType": "uint256",
              "name": "transactionId",
              "type": "uint256"
            },
            {
              "internalType": "uint256",
              "name": "tokenId",
              "type": "uint256"
            },
            {
              "internalType": "address",
              "name": "owner",
              "type": "address"
            },
            {
              "internalType": "address",
              "name": "seller",
              "type": "address"
            },
            {
              "internalType": "uint256",
              "name": "cost",
              "type": "uint256"
            },
            {
              "internalType": "string",
              "name": "metadataURI",
              "type": "string"
            },
            {
              "internalType": "uint256",
              "name": "timestamp",
              "type": "uint256"
            }
          ],
          "internalType": "struct NewNFTMarketplace.Transaction[]",
          "name": "",
          "type": "tuple[]"
        }
      ],
      "stateMutability": "view",
      "type": "function"
    },
    {
      "inputs": [
        {
          "internalType": "address",
          "name": "owner",
          "type": "address"
        },
        {
          "internalType": "address",
          "name": "operator",
          "type": "address"
        }
      ],
      "name": "isApprovedForAll",
      "outputs": [
        {
          "internalType": "bool",
          "name": "",
          "type": "bool"
        }
      ],
      "stateMutability": "view",
      "type": "function"
    },
    {
      "inputs": [],
      "name": "name",
      "outputs": [
        {
          "internalType": "string",
          "name": "",
          "type": "string"
        }
      ],
      "stateMutability": "view",
      "type": "function"
    },
    {
      "inputs": [
        {
          "internalType": "uint256",
          "name": "tokenId",
          "type": "uint256"
        }
      ],
      "name": "ownerOf",
      "outputs": [
        {
          "internalType": "address",
          "name": "",
          "type": "address"
        }
      ],
      "stateMutability": "view",
      "type": "function"
    },
    {
      "inputs": [
        {
          "internalType": "uint256",
          "name": "tokenId",
          "type": "uint256"
        },
        {
          "internalType": "uint256",
          "name": "price",
          "type": "uint256"
        },
        {
          "internalType": "string",
          "name": "_username",
          "type": "string"
        }
      ],
      "name": "resellToken",
      "outputs": [],
      "stateMutability": "payable",
      "type": "function"
    },
    {
      "inputs": [
        {
          "internalType": "address",
          "name": "from",
          "type": "address"
        },
        {
          "internalType": "address",
          "name": "to",
          "type": "address"
        },
        {
          "internalType": "uint256",
          "name": "tokenId",
          "type": "uint256"
        }
      ],
      "name": "safeTransferFrom",
      "outputs": [],
      "stateMutability": "nonpayable",
      "type": "function"
    },
    {
      "inputs": [
        {
          "internalType": "address",
          "name": "from",
          "type": "address"
        },
        {
          "internalType": "address",
          "name": "to",
          "type": "address"
        },
        {
          "internalType": "uint256",
          "name": "tokenId",
          "type": "uint256"
        },
        {
          "internalType": "bytes",
          "name": "data",
          "type": "bytes"
        }
      ],
      "name": "safeTransferFrom",
      "outputs": [],
      "stateMutability": "nonpayable",
      "type": "function"
    },
    {
      "inputs": [
        {
          "internalType": "address",
          "name": "operator",
          "type": "address"
        },
        {
          "internalType": "bool",
          "name": "approved",
          "type": "bool"
        }
      ],
      "name": "setApprovalForAll",
      "outputs": [],
      "stateMutability": "nonpayable",
      "type": "function"
    },
    {
      "inputs": [
        {
          "internalType": "bytes4",
          "name": "interfaceId",
          "type": "bytes4"
        }
      ],
      "name": "supportsInterface",
      "outputs": [
        {
          "internalType": "bool",
          "name": "",
          "type": "bool"
        }
      ],
      "stateMutability": "view",
      "type": "function"
    },
    {
      "inputs": [],
      "name": "symbol",
      "outputs": [
        {
          "internalType": "string",
          "name": "",
          "type": "string"
        }
      ],
      "stateMutability": "view",
      "type": "function"
    },
    {
      "inputs": [
        {
          "internalType": "uint256",
          "name": "tokenId",
          "type": "uint256"
        }
      ],
      "name": "tokenURI",
      "outputs": [
        {
          "internalType": "string",
          "name": "",
          "type": "string"
        }
      ],
      "stateMutability": "view",
      "type": "function"
    },
    {
      "inputs": [
        {
          "internalType": "uint256",
          "name": "",
          "type": "uint256"
        }
      ],
      "name": "transactionList",
      "outputs": [
        {
          "internalType": "uint256",
          "name": "transactionId",
          "type": "uint256"
        },
        {
          "internalType": "uint256",
          "name": "tokenId",
          "type": "uint256"
        },
        {
          "internalType": "address",
          "name": "owner",
          "type": "address"
        },
        {
          "internalType": "address",
          "name": "seller",
          "type": "address"
        },
        {
          "internalType": "uint256",
          "name": "cost",
          "type": "uint256"
        },
        {
          "internalType": "string",
          "name": "metadataURI",
          "type": "string"
        },
        {
          "internalType": "uint256",
          "name": "timestamp",
          "type": "uint256"
        }
      ],
      "stateMutability": "view",
      "type": "function"
    },
    {
      "inputs": [
        {
          "internalType": "address",
          "name": "from",
          "type": "address"
        },
        {
          "internalType": "address",
          "name": "to",
          "type": "address"
        },
        {
          "internalType": "uint256",
          "name": "tokenId",
          "type": "uint256"
        }
      ],
      "name": "transferFrom",
      "outputs": [],
      "stateMutability": "nonpayable",
      "type": "function"
    },
    {
      "inputs": [
        {
          "internalType": "uint256",
          "name": "_listingPrice",
          "type": "uint256"
        }
      ],
      "name": "updateListingPrice",
      "outputs": [],
      "stateMutability": "payable",
      "type": "function"
    },
    {
      "inputs": [
        {
          "internalType": "uint256",
          "name": "",
          "type": "uint256"
        }
      ],
      "name": "usersList",
      "outputs": [
        {
          "internalType": "uint256",
          "name": "userId",
          "type": "uint256"
        },
        {
          "internalType": "address",
          "name": "owner",
          "type": "address"
        },
        {
          "internalType": "string",
          "name": "name",
          "type": "string"
        },
        {
          "internalType": "string",
          "name": "image",
          "type": "string"
        }
      ],
      "stateMutability": "view",
      "type": "function"
    }
  ],
  "bytecode": "0x60806040526605543df729c000600c553480156200001c57600080fd5b506040518060400160405280600f81526020017f3344204d61726b657420546f6b656e00000000000000000000000000000000008152506040518060400160405280600481526020017f4d5933440000000000000000000000000000000000000000000000000000000081525081600090816200009a919062000370565b508060019081620000ac919062000370565b50505033600b60006101000a81548173ffffffffffffffffffffffffffffffffffffffff021916908373ffffffffffffffffffffffffffffffffffffffff16021790555062000457565b600081519050919050565b7f4e487b7100000000000000000000000000000000000000000000000000000000600052604160045260246000fd5b7f4e487b7100000000000000000000000000000000000000000000000000000000600052602260045260246000fd5b600060028204905060018216806200017857607f821691505b6020821081036200018e576200018d62000130565b5b50919050565b60008190508160005260206000209050919050565b60006020601f8301049050919050565b600082821b905092915050565b600060088302620001f87fffffffffffffffffffffffffffffffffffffffffffffffffffffffffffffffff82620001b9565b620002048683620001b9565b95508019841693508086168417925050509392505050565b6000819050919050565b6000819050919050565b6000620002516200024b62000245846200021c565b62000226565b6200021c565b9050919050565b6000819050919050565b6200026d8362000230565b620002856200027c8262000258565b848454620001c6565b825550505050565b600090565b6200029c6200028d565b620002a981848462000262565b505050565b5b81811015620002d157620002c560008262000292565b600181019050620002af565b5050565b601f8211156200032057620002ea8162000194565b620002f584620001a9565b8101602085101562000305578190505b6200031d6200031485620001a9565b830182620002ae565b50505b505050565b600082821c905092915050565b6000620003456000198460080262000325565b1980831691505092915050565b600062000360838362000332565b9150826002028217905092915050565b6200037b82620000f6565b67ffffffffffffffff81111562000397576200039662000101565b5b620003a382546200015f565b620003b0828285620002d5565b600060209050601f831160018114620003e85760008415620003d3578287015190505b620003df858262000352565b8655506200044f565b601f198416620003f88662000194565b60005b828110156200042257848901518255600182019150602085019450602081019050620003fb565b868310156200044257848901516200043e601f89168262000332565b8355505b6001600288020188555050505b505050505050565b61629780620004676000396000f3fe6080604052600436106101c25760003560e01c80636352211e116100f7578063ae677aa311610095578063c6c9b5b111610064578063c6c9b5b114610656578063c87b56dd14610686578063e985e9c5146106c3578063fd8df70814610700576101c2565b8063ae677aa3146105cc578063b88d4fde146105e8578063be9af53614610611578063c39cbef11461062d576101c2565b806387b162b5116100d157806387b162b51461052657806395d89b411461054f578063a22cb4651461057a578063a871c231146105a3576101c2565b80636352211e1461049057806370a08231146104cd578063824df4161461050a576101c2565b8063208b2c711161016457806342842e0e1161013e57806342842e0e146103bd57806345f8fa80146103e6578063502aa3b5146104115780635fd4b08a14610451576101c2565b8063208b2c711461032e57806323b872dd1461035757806333ea3dc814610380576101c2565b8063081812fc116101a0578063081812fc14610272578063095ea7b3146102af5780630f08efe0146102d857806312e8558514610303576101c2565b806301ffc9a7146101c757806304ef5b211461020457806306fdde0314610247575b600080fd5b3480156101d357600080fd5b506101ee60048036038101906101e99190614451565b61073d565b6040516101fb9190614499565b60405180910390f35b34801561021057600080fd5b5061022b600480360381019061022691906144ea565b61081f565b60405161023e97969594939291906145f7565b60405180910390f35b34801561025357600080fd5b5061025c610929565b604051610269919061466d565b60405180910390f35b34801561027e57600080fd5b50610299600480360381019061029491906144ea565b6109bb565b6040516102a6919061468f565b60405180910390f35b3480156102bb57600080fd5b506102d660048036038101906102d191906146d6565b610a01565b005b3480156102e457600080fd5b506102ed610b18565b6040516102fa9190614920565b60405180910390f35b34801561030f57600080fd5b50610318610e73565b6040516103259190614942565b60405180910390f35b34801561033a57600080fd5b5061035560048036038101906103509190614a92565b610e7d565b005b34801561036357600080fd5b5061037e60048036038101906103799190614aee565b610f49565b005b34801561038c57600080fd5b506103a760048036038101906103a291906144ea565b610fa9565b6040516103b49190614c9f565b60405180910390f35b3480156103c957600080fd5b506103e460048036038101906103df9190614aee565b61128a565b005b3480156103f257600080fd5b506103fb6112aa565b6040516104089190614920565b60405180910390f35b34801561041d57600080fd5b50610438600480360381019061043391906144ea565b611689565b6040516104489493929190614cc1565b60405180910390f35b34801561045d57600080fd5b5061047860048036038101906104739190614d14565b6117e9565b60405161048793929190614d41565b60405180910390f35b34801561049c57600080fd5b506104b760048036038101906104b291906144ea565b611a14565b6040516104c4919061468f565b60405180910390f35b3480156104d957600080fd5b506104f460048036038101906104ef9190614d14565b611a9a565b6040516105019190614942565b60405180910390f35b610524600480360381019061051f9190614d86565b611b51565b005b34801561053257600080fd5b5061054d60048036038101906105489190614df5565b611dc0565b005b34801561055b57600080fd5b50610564611eec565b604051610571919061466d565b60405180910390f35b34801561058657600080fd5b506105a1600480360381019061059c9190614e99565b611f7e565b005b3480156105af57600080fd5b506105ca60048036038101906105c59190614ed9565b611f94565b005b6105e660048036038101906105e191906144ea565b612071565b005b3480156105f457600080fd5b5061060f600480360381019061060a9190614fc3565b61210b565b005b61062b600480360381019061062691906144ea565b61216d565b005b34801561063957600080fd5b50610654600480360381019061064f9190614a92565b612661565b005b610670600480360381019061066b9190615046565b612736565b60405161067d9190614942565b60405180910390f35b34801561069257600080fd5b506106ad60048036038101906106a891906144ea565b61277a565b6040516106ba919061466d565b60405180910390f35b3480156106cf57600080fd5b506106ea60048036038101906106e591906150d1565b61288c565b6040516106f79190614499565b60405180910390f35b34801561070c57600080fd5b5061072760048036038101906107229190614d14565b612920565b6040516107349190614920565b60405180910390f35b60007f80ac58cd000000000000000000000000000000000000000000000000000000007bffffffffffffffffffffffffffffffffffffffffffffffffffffffff1916827bffffffffffffffffffffffffffffffffffffffffffffffffffffffff1916148061080857507f5b5e139f000000000000000000000000000000000000000000000000000000007bffffffffffffffffffffffffffffffffffffffffffffffffffffffff1916827bffffffffffffffffffffffffffffffffffffffffffffffffffffffff1916145b80610818575061081782612ee3565b5b9050919050565b600e6020528060005260406000206000915090508060000154908060010154908060020160009054906101000a900473ffffffffffffffffffffffffffffffffffffffff16908060030160009054906101000a900473ffffffffffffffffffffffffffffffffffffffff16908060040154908060050180546108a090615140565b80601f01602080910402602001604051908101604052809291908181526020018280546108cc90615140565b80156109195780601f106108ee57610100808354040283529160200191610919565b820191906000526020600020905b8154815290600101906020018083116108fc57829003601f168201915b5050505050908060060154905087565b60606000805461093890615140565b80601f016020809104026020016040519081016040528092919081815260200182805461096490615140565b80156109b15780601f10610986576101008083540402835291602001916109b1565b820191906000526020600020905b81548152906001019060200180831161099457829003601f168201915b5050505050905090565b60006109c682612f4d565b6004600083815260200190815260200160002060009054906101000a900473ffffffffffffffffffffffffffffffffffffffff169050919050565b6000610a0c82611a14565b90508073ffffffffffffffffffffffffffffffffffffffff168373ffffffffffffffffffffffffffffffffffffffff1603610a7c576040517f08c379a0000000000000000000000000000000000000000000000000000000008152600401610a73906151e3565b60405180910390fd5b8073ffffffffffffffffffffffffffffffffffffffff16610a9b612f98565b73ffffffffffffffffffffffffffffffffffffffff161480610aca5750610ac981610ac4612f98565b61288c565b5b610b09576040517f08c379a0000000000000000000000000000000000000000000000000000000008152600401610b0090615275565b60405180910390fd5b610b138383612fa0565b505050565b60606000610b266007613059565b90506000610b346008613059565b610b3e6007613059565b610b4891906152c4565b90506000808267ffffffffffffffff811115610b6757610b66614967565b5b604051908082528060200260200182016040528015610ba057816020015b610b8d6142f3565b815260200190600190039081610b855790505b50905060005b84811015610e68573073ffffffffffffffffffffffffffffffffffffffff16600f6000600184610bd691906152f8565b815260200190815260200160002060030160009054906101000a900473ffffffffffffffffffffffffffffffffffffffff1673ffffffffffffffffffffffffffffffffffffffff1603610e55576000600182610c3291906152f8565b90506000600f60008381526020019081526020016000209050806040518061010001604052908160008201548152602001600182018054610c7290615140565b80601f0160208091040260200160405190810160405280929190818152602001828054610c9e90615140565b8015610ceb5780601f10610cc057610100808354040283529160200191610ceb565b820191906000526020600020905b815481529060010190602001808311610cce57829003601f168201915b505050505081526020016002820160009054906101000a900473ffffffffffffffffffffffffffffffffffffffff1673ffffffffffffffffffffffffffffffffffffffff1673ffffffffffffffffffffffffffffffffffffffff1681526020016003820160009054906101000a900473ffffffffffffffffffffffffffffffffffffffff1673ffffffffffffffffffffffffffffffffffffffff1673ffffffffffffffffffffffffffffffffffffffff168152602001600482015481526020016005820160009054906101000a900460ff16151515158152602001600682015481526020016007820160009054906101000a900473ffffffffffffffffffffffffffffffffffffffff1673ffffffffffffffffffffffffffffffffffffffff1673ffffffffffffffffffffffffffffffffffffffff1681525050848681518110610e3857610e3761532c565b5b6020026020010181905250600185610e5091906152f8565b945050505b8080610e609061535b565b915050610ba6565b508094505050505090565b6000600c54905090565b3373ffffffffffffffffffffffffffffffffffffffff16600d600084815260200190815260200160002060010160009054906101000a900473ffffffffffffffffffffffffffffffffffffffff1673ffffffffffffffffffffffffffffffffffffffff1614610f21576040517f08c379a0000000000000000000000000000000000000000000000000000000008152600401610f18906153ef565b60405180910390fd5b80600d60008481526020019081526020016000206003019081610f4491906155bb565b505050565b610f5a610f54612f98565b82613067565b610f99576040517f08c379a0000000000000000000000000000000000000000000000000000000008152600401610f90906156ff565b60405180910390fd5b610fa48383836130fc565b505050565b60606000610fb7600a613059565b905060008060005b838110156110135785600e6000600184610fd991906152f8565b8152602001908152602001600020600101540361100057600183610ffd91906152f8565b92505b808061100b9061535b565b915050610fbf565b5060008267ffffffffffffffff8111156110305761102f614967565b5b60405190808252806020026020018201604052801561106957816020015b61105661437c565b81526020019060019003908161104e5790505b50905060005b8481101561127d5786600e600060018461108991906152f8565b8152602001908152602001600020600101540361126a5760006001826110af91906152f8565b90506000600e60008381526020019081526020016000209050806040518060e001604052908160008201548152602001600182015481526020016002820160009054906101000a900473ffffffffffffffffffffffffffffffffffffffff1673ffffffffffffffffffffffffffffffffffffffff1673ffffffffffffffffffffffffffffffffffffffff1681526020016003820160009054906101000a900473ffffffffffffffffffffffffffffffffffffffff1673ffffffffffffffffffffffffffffffffffffffff1673ffffffffffffffffffffffffffffffffffffffff168152602001600482015481526020016005820180546111ae90615140565b80601f01602080910402602001604051908101604052809291908181526020018280546111da90615140565b80156112275780601f106111fc57610100808354040283529160200191611227565b820191906000526020600020905b81548152906001019060200180831161120a57829003601f168201915b5050505050815260200160068201548152505084868151811061124d5761124c61532c565b5b602002602001018190525060018561126591906152f8565b945050505b80806112759061535b565b91505061106f565b5080945050505050919050565b6112a58383836040518060200160405280600081525061210b565b505050565b606060006112b86007613059565b905060008060005b83811015611360573373ffffffffffffffffffffffffffffffffffffffff16600f60006001846112f091906152f8565b815260200190815260200160002060020160009054906101000a900473ffffffffffffffffffffffffffffffffffffffff1673ffffffffffffffffffffffffffffffffffffffff160361134d5760018361134a91906152f8565b92505b80806113589061535b565b9150506112c0565b5060008267ffffffffffffffff81111561137d5761137c614967565b5b6040519080825280602002602001820160405280156113b657816020015b6113a36142f3565b81526020019060019003908161139b5790505b50905060005b8481101561167e573373ffffffffffffffffffffffffffffffffffffffff16600f60006001846113ec91906152f8565b815260200190815260200160002060020160009054906101000a900473ffffffffffffffffffffffffffffffffffffffff1673ffffffffffffffffffffffffffffffffffffffff160361166b57600060018261144891906152f8565b90506000600f6000838152602001908152602001600020905080604051806101000160405290816000820154815260200160018201805461148890615140565b80601f01602080910402602001604051908101604052809291908181526020018280546114b490615140565b80156115015780601f106114d657610100808354040283529160200191611501565b820191906000526020600020905b8154815290600101906020018083116114e457829003601f168201915b505050505081526020016002820160009054906101000a900473ffffffffffffffffffffffffffffffffffffffff1673ffffffffffffffffffffffffffffffffffffffff1673ffffffffffffffffffffffffffffffffffffffff1681526020016003820160009054906101000a900473ffffffffffffffffffffffffffffffffffffffff1673ffffffffffffffffffffffffffffffffffffffff1673ffffffffffffffffffffffffffffffffffffffff168152602001600482015481526020016005820160009054906101000a900460ff16151515158152602001600682015481526020016007820160009054906101000a900473ffffffffffffffffffffffffffffffffffffffff1673ffffffffffffffffffffffffffffffffffffffff1673ffffffffffffffffffffffffffffffffffffffff168152505084868151811061164e5761164d61532c565b5b602002602001018190525060018561166691906152f8565b945050505b80806116769061535b565b9150506113bc565b508094505050505090565b600d6020528060005260406000206000915090508060000154908060010160009054906101000a900473ffffffffffffffffffffffffffffffffffffffff16908060020180546116d890615140565b80601f016020809104026020016040519081016040528092919081815260200182805461170490615140565b80156117515780601f1061172657610100808354040283529160200191611751565b820191906000526020600020905b81548152906001019060200180831161173457829003601f168201915b50505050509080600301805461176690615140565b80601f016020809104026020016040519081016040528092919081815260200182805461179290615140565b80156117df5780601f106117b4576101008083540402835291602001916117df565b820191906000526020600020905b8154815290600101906020018083116117c257829003601f168201915b5050505050905084565b60606000606060006117fb6009613059565b905060005b81811015611a0a578573ffffffffffffffffffffffffffffffffffffffff16600d600060018461183091906152f8565b815260200190815260200160002060010160009054906101000a900473ffffffffffffffffffffffffffffffffffffffff1673ffffffffffffffffffffffffffffffffffffffff16036119f757600060018261188c91906152f8565b9050600d6000828152602001908152602001600020600201600d600083815260200190815260200160002060000154600d60008481526020019081526020016000206003018280546118dd90615140565b80601f016020809104026020016040519081016040528092919081815260200182805461190990615140565b80156119565780601f1061192b57610100808354040283529160200191611956565b820191906000526020600020905b81548152906001019060200180831161193957829003601f168201915b5050505050925080805461196990615140565b80601f016020809104026020016040519081016040528092919081815260200182805461199590615140565b80156119e25780601f106119b7576101008083540402835291602001916119e2565b820191906000526020600020905b8154815290600101906020018083116119c557829003601f168201915b50505050509050955095509550505050611a0d565b8080611a029061535b565b915050611800565b50505b9193909250565b600080611a20836133f5565b9050600073ffffffffffffffffffffffffffffffffffffffff168173ffffffffffffffffffffffffffffffffffffffff1603611a91576040517f08c379a0000000000000000000000000000000000000000000000000000000008152600401611a889061576b565b60405180910390fd5b80915050919050565b60008073ffffffffffffffffffffffffffffffffffffffff168273ffffffffffffffffffffffffffffffffffffffff1603611b0a576040517f08c379a0000000000000000000000000000000000000000000000000000000008152600401611b01906157fd565b60405180910390fd5b600360008373ffffffffffffffffffffffffffffffffffffffff1673ffffffffffffffffffffffffffffffffffffffff168152602001908152602001600020549050919050565b3373ffffffffffffffffffffffffffffffffffffffff16600f600085815260200190815260200160002060030160009054906101000a900473ffffffffffffffffffffffffffffffffffffffff1673ffffffffffffffffffffffffffffffffffffffff1614611bf5576040517f08c379a0000000000000000000000000000000000000000000000000000000008152600401611bec90615869565b60405180910390fd5b600c543414611c39576040517f08c379a0000000000000000000000000000000000000000000000000000000008152600401611c30906158fb565b60405180910390fd5b6000600f600085815260200190815260200160002060050160006101000a81548160ff02191690831515021790555081600f60008581526020019081526020016000206004018190555033600f600085815260200190815260200160002060020160006101000a81548173ffffffffffffffffffffffffffffffffffffffff021916908373ffffffffffffffffffffffffffffffffffffffff16021790555030600f600085815260200190815260200160002060030160006101000a81548173ffffffffffffffffffffffffffffffffffffffff021916908373ffffffffffffffffffffffffffffffffffffffff16021790555033600f600085815260200190815260200160002060070160006101000a81548173ffffffffffffffffffffffffffffffffffffffff021916908373ffffffffffffffffffffffffffffffffffffffff16021790555080600f60008581526020019081526020016000206001019081611da591906155bb565b50611db06008613432565b611dbb3330856130fc565b505050565b611dca600961348e565b6000611dd66009613059565b905060405180608001604052808281526020013373ffffffffffffffffffffffffffffffffffffffff16815260200184815260200183815250600d60008381526020019081526020016000206000820151816000015560208201518160010160006101000a81548173ffffffffffffffffffffffffffffffffffffffff021916908373ffffffffffffffffffffffffffffffffffffffff1602179055506040820151816002019081611e8891906155bb565b506060820151816003019081611e9e91906155bb565b50905050611eab83611f94565b807f973e717255cb89a77cced1d7752b55c8058ffe5060840064336a32ad811fca6a338585604051611edf9392919061591b565b60405180910390a2505050565b606060018054611efb90615140565b80601f0160208091040260200160405190810160405280929190818152602001828054611f2790615140565b8015611f745780601f10611f4957610100808354040283529160200191611f74565b820191906000526020600020905b815481529060010190602001808311611f5757829003601f168201915b5050505050905090565b611f90611f89612f98565b83836134a4565b5050565b6000611fa06007613059565b905060005b8181101561206c573373ffffffffffffffffffffffffffffffffffffffff16600f6000600184611fd591906152f8565b815260200190815260200160002060020160009054906101000a900473ffffffffffffffffffffffffffffffffffffffff1673ffffffffffffffffffffffffffffffffffffffff160361205957600060018261203191906152f8565b905083600f6000838152602001908152602001600020600101908161205691906155bb565b50505b80806120649061535b565b915050611fa5565b505050565b3373ffffffffffffffffffffffffffffffffffffffff16600b60009054906101000a900473ffffffffffffffffffffffffffffffffffffffff1673ffffffffffffffffffffffffffffffffffffffff1614612101576040517f08c379a00000000000000000000000000000000000000000000000000000000081526004016120f8906159d2565b60405180910390fd5b80600c8190555050565b61211c612116612f98565b83613067565b61215b576040517f08c379a0000000000000000000000000000000000000000000000000000000008152600401612152906156ff565b60405180910390fd5b61216784848484613610565b50505050565b6000600f60008381526020019081526020016000206004015490508034146121ca576040517f08c379a00000000000000000000000000000000000000000000000000000000081526004016121c190615a64565b60405180910390fd5b3373ffffffffffffffffffffffffffffffffffffffff16600f600084815260200190815260200160002060020160009054906101000a900473ffffffffffffffffffffffffffffffffffffffff1673ffffffffffffffffffffffffffffffffffffffff160361226e576040517f08c379a000000000000000000000000000000000000000000000000000000000815260040161226590615ad0565b60405180910390fd5b612278600a61348e565b6000612284600a613059565b90506040518060e001604052808281526020018481526020013373ffffffffffffffffffffffffffffffffffffffff168152602001600f600086815260200190815260200160002060020160009054906101000a900473ffffffffffffffffffffffffffffffffffffffff1673ffffffffffffffffffffffffffffffffffffffff16815260200183815260200161231a8561277a565b815260200142815250600e6000838152602001908152602001600020600082015181600001556020820151816001015560408201518160020160006101000a81548173ffffffffffffffffffffffffffffffffffffffff021916908373ffffffffffffffffffffffffffffffffffffffff16021790555060608201518160030160006101000a81548173ffffffffffffffffffffffffffffffffffffffff021916908373ffffffffffffffffffffffffffffffffffffffff1602179055506080820151816004015560a08201518160050190816123f791906155bb565b5060c0820151816006015590505033600f600085815260200190815260200160002060030160006101000a81548173ffffffffffffffffffffffffffffffffffffffff021916908373ffffffffffffffffffffffffffffffffffffffff1602179055506001600f600085815260200190815260200160002060050160006101000a81548160ff0219169083151502179055506000600f600085815260200190815260200160002060020160006101000a81548173ffffffffffffffffffffffffffffffffffffffff021916908373ffffffffffffffffffffffffffffffffffffffff1602179055506124e9600861348e565b6124f43033856130fc565b807f4e2283166b7fb39296733c664e8b6ac0e713237cc1073943fef399e83d53889d8433600f600088815260200190815260200160002060020160009054906101000a900473ffffffffffffffffffffffffffffffffffffffff16866125598961277a565b4260405161256c96959493929190615b45565b60405180910390a2600b60009054906101000a900473ffffffffffffffffffffffffffffffffffffffff1673ffffffffffffffffffffffffffffffffffffffff166108fc600c549081150290604051600060405180830381858888f193505050501580156125de573d6000803e3d6000fd5b50600f600084815260200190815260200160002060020160009054906101000a900473ffffffffffffffffffffffffffffffffffffffff1673ffffffffffffffffffffffffffffffffffffffff166108fc349081150290604051600060405180830381858888f1935050505015801561265b573d6000803e3d6000fd5b50505050565b3373ffffffffffffffffffffffffffffffffffffffff16600d600084815260200190815260200160002060010160009054906101000a900473ffffffffffffffffffffffffffffffffffffffff1673ffffffffffffffffffffffffffffffffffffffff1614612705576040517f08c379a00000000000000000000000000000000000000000000000000000000081526004016126fc906153ef565b60405180910390fd5b80600d6000848152602001908152602001600020600201908161272891906155bb565b5061273281611f94565b5050565b6000612742600761348e565b600061274e6007613059565b905061275a338261366c565b6127648186613889565b61276f8185856138f6565b809150509392505050565b606061278582612f4d565b60006006600084815260200190815260200160002080546127a590615140565b80601f01602080910402602001604051908101604052809291908181526020018280546127d190615140565b801561281e5780601f106127f35761010080835404028352916020019161281e565b820191906000526020600020905b81548152906001019060200180831161280157829003601f168201915b50505050509050600061282f613d3c565b90506000815103612844578192505050612887565b600082511115612879578082604051602001612861929190615be9565b60405160208183030381529060405292505050612887565b61288284613d53565b925050505b919050565b6000600560008473ffffffffffffffffffffffffffffffffffffffff1673ffffffffffffffffffffffffffffffffffffffff16815260200190815260200160002060008373ffffffffffffffffffffffffffffffffffffffff1673ffffffffffffffffffffffffffffffffffffffff16815260200190815260200160002060009054906101000a900460ff16905092915050565b6060600061292e6007613059565b905060008060005b83811015612ac7578573ffffffffffffffffffffffffffffffffffffffff16600f600060018461296691906152f8565b815260200190815260200160002060030160009054906101000a900473ffffffffffffffffffffffffffffffffffffffff1673ffffffffffffffffffffffffffffffffffffffff161480612a2757508573ffffffffffffffffffffffffffffffffffffffff16600f60006001846129dd91906152f8565b815260200190815260200160002060020160009054906101000a900473ffffffffffffffffffffffffffffffffffffffff1673ffffffffffffffffffffffffffffffffffffffff16145b80612a9f57508573ffffffffffffffffffffffffffffffffffffffff16600f6000600184612a5591906152f8565b815260200190815260200160002060070160009054906101000a900473ffffffffffffffffffffffffffffffffffffffff1673ffffffffffffffffffffffffffffffffffffffff16145b15612ab457600183612ab191906152f8565b92505b8080612abf9061535b565b915050612936565b5060008267ffffffffffffffff811115612ae457612ae3614967565b5b604051908082528060200260200182016040528015612b1d57816020015b612b0a6142f3565b815260200190600190039081612b025790505b50905060005b84811015612ed6578673ffffffffffffffffffffffffffffffffffffffff16600f6000600184612b5391906152f8565b815260200190815260200160002060030160009054906101000a900473ffffffffffffffffffffffffffffffffffffffff1673ffffffffffffffffffffffffffffffffffffffff161480612c1457508673ffffffffffffffffffffffffffffffffffffffff16600f6000600184612bca91906152f8565b815260200190815260200160002060020160009054906101000a900473ffffffffffffffffffffffffffffffffffffffff1673ffffffffffffffffffffffffffffffffffffffff16145b80612c8c57508673ffffffffffffffffffffffffffffffffffffffff16600f6000600184612c4291906152f8565b815260200190815260200160002060070160009054906101000a900473ffffffffffffffffffffffffffffffffffffffff1673ffffffffffffffffffffffffffffffffffffffff16145b15612ec3576000600182612ca091906152f8565b90506000600f60008381526020019081526020016000209050806040518061010001604052908160008201548152602001600182018054612ce090615140565b80601f0160208091040260200160405190810160405280929190818152602001828054612d0c90615140565b8015612d595780601f10612d2e57610100808354040283529160200191612d59565b820191906000526020600020905b815481529060010190602001808311612d3c57829003601f168201915b505050505081526020016002820160009054906101000a900473ffffffffffffffffffffffffffffffffffffffff1673ffffffffffffffffffffffffffffffffffffffff1673ffffffffffffffffffffffffffffffffffffffff1681526020016003820160009054906101000a900473ffffffffffffffffffffffffffffffffffffffff1673ffffffffffffffffffffffffffffffffffffffff1673ffffffffffffffffffffffffffffffffffffffff168152602001600482015481526020016005820160009054906101000a900460ff16151515158152602001600682015481526020016007820160009054906101000a900473ffffffffffffffffffffffffffffffffffffffff1673ffffffffffffffffffffffffffffffffffffffff1673ffffffffffffffffffffffffffffffffffffffff1681525050848681518110612ea657612ea561532c565b5b6020026020010181905250600185612ebe91906152f8565b945050505b8080612ece9061535b565b915050612b23565b5080945050505050919050565b60007f01ffc9a7000000000000000000000000000000000000000000000000000000007bffffffffffffffffffffffffffffffffffffffffffffffffffffffff1916827bffffffffffffffffffffffffffffffffffffffffffffffffffffffff1916149050919050565b612f5681613dbb565b612f95576040517f08c379a0000000000000000000000000000000000000000000000000000000008152600401612f8c9061576b565b60405180910390fd5b50565b600033905090565b816004600083815260200190815260200160002060006101000a81548173ffffffffffffffffffffffffffffffffffffffff021916908373ffffffffffffffffffffffffffffffffffffffff160217905550808273ffffffffffffffffffffffffffffffffffffffff1661301383611a14565b73ffffffffffffffffffffffffffffffffffffffff167f8c5be1e5ebec7d5bd14f71427d1e84f3dd0314c0f7b2291e5b200ac8c7c3b92560405160405180910390a45050565b600081600001549050919050565b60008061307383611a14565b90508073ffffffffffffffffffffffffffffffffffffffff168473ffffffffffffffffffffffffffffffffffffffff1614806130b557506130b4818561288c565b5b806130f357508373ffffffffffffffffffffffffffffffffffffffff166130db846109bb565b73ffffffffffffffffffffffffffffffffffffffff16145b91505092915050565b8273ffffffffffffffffffffffffffffffffffffffff1661311c82611a14565b73ffffffffffffffffffffffffffffffffffffffff1614613172576040517f08c379a000000000000000000000000000000000000000000000000000000000815260040161316990615c7f565b60405180910390fd5b600073ffffffffffffffffffffffffffffffffffffffff168273ffffffffffffffffffffffffffffffffffffffff16036131e1576040517f08c379a00000000000000000000000000000000000000000000000000000000081526004016131d890615d11565b60405180910390fd5b6131ee8383836001613dfc565b8273ffffffffffffffffffffffffffffffffffffffff1661320e82611a14565b73ffffffffffffffffffffffffffffffffffffffff1614613264576040517f08c379a000000000000000000000000000000000000000000000000000000000815260040161325b90615c7f565b60405180910390fd5b6004600082815260200190815260200160002060006101000a81549073ffffffffffffffffffffffffffffffffffffffff02191690556001600360008573ffffffffffffffffffffffffffffffffffffffff1673ffffffffffffffffffffffffffffffffffffffff168152602001908152602001600020600082825403925050819055506001600360008473ffffffffffffffffffffffffffffffffffffffff1673ffffffffffffffffffffffffffffffffffffffff16815260200190815260200160002060008282540192505081905550816002600083815260200190815260200160002060006101000a81548173ffffffffffffffffffffffffffffffffffffffff021916908373ffffffffffffffffffffffffffffffffffffffff160217905550808273ffffffffffffffffffffffffffffffffffffffff168473ffffffffffffffffffffffffffffffffffffffff167fddf252ad1be2c89b69c2b068fc378daa952ba7f163c4a11628f55a4df523b3ef60405160405180910390a46133f08383836001613f22565b505050565b60006002600083815260200190815260200160002060009054906101000a900473ffffffffffffffffffffffffffffffffffffffff169050919050565b6000816000015490506000811161347e576040517f08c379a000000000000000000000000000000000000000000000000000000000815260040161347590615d7d565b60405180910390fd5b6001810382600001819055505050565b6001816000016000828254019250508190555050565b8173ffffffffffffffffffffffffffffffffffffffff168373ffffffffffffffffffffffffffffffffffffffff1603613512576040517f08c379a000000000000000000000000000000000000000000000000000000000815260040161350990615de9565b60405180910390fd5b80600560008573ffffffffffffffffffffffffffffffffffffffff1673ffffffffffffffffffffffffffffffffffffffff16815260200190815260200160002060008473ffffffffffffffffffffffffffffffffffffffff1673ffffffffffffffffffffffffffffffffffffffff16815260200190815260200160002060006101000a81548160ff0219169083151502179055508173ffffffffffffffffffffffffffffffffffffffff168373ffffffffffffffffffffffffffffffffffffffff167f17307eab39ab6107e8899845ad3d59bd9653f200f220920489ca2b5937696c31836040516136039190614499565b60405180910390a3505050565b61361b8484846130fc565b61362784848484613f28565b613666576040517f08c379a000000000000000000000000000000000000000000000000000000000815260040161365d90615e7b565b60405180910390fd5b50505050565b600073ffffffffffffffffffffffffffffffffffffffff168273ffffffffffffffffffffffffffffffffffffffff16036136db576040517f08c379a00000000000000000000000000000000000000000000000000000000081526004016136d290615ee7565b60405180910390fd5b6136e481613dbb565b15613724576040517f08c379a000000000000000000000000000000000000000000000000000000000815260040161371b90615f53565b60405180910390fd5b613732600083836001613dfc565b61373b81613dbb565b1561377b576040517f08c379a000000000000000000000000000000000000000000000000000000000815260040161377290615f53565b60405180910390fd5b6001600360008473ffffffffffffffffffffffffffffffffffffffff1673ffffffffffffffffffffffffffffffffffffffff16815260200190815260200160002060008282540192505081905550816002600083815260200190815260200160002060006101000a81548173ffffffffffffffffffffffffffffffffffffffff021916908373ffffffffffffffffffffffffffffffffffffffff160217905550808273ffffffffffffffffffffffffffffffffffffffff16600073ffffffffffffffffffffffffffffffffffffffff167fddf252ad1be2c89b69c2b068fc378daa952ba7f163c4a11628f55a4df523b3ef60405160405180910390a4613885600083836001613f22565b5050565b61389282613dbb565b6138d1576040517f08c379a00000000000000000000000000000000000000000000000000000000081526004016138c890615fe5565b60405180910390fd5b806006600084815260200190815260200160002090816138f191906155bb565b505050565b60008211613939576040517f08c379a000000000000000000000000000000000000000000000000000000000815260040161393090616051565b60405180910390fd5b600c54341461397d576040517f08c379a0000000000000000000000000000000000000000000000000000000008152600401613974906158fb565b60405180910390fd5b6040518061010001604052808481526020018281526020013373ffffffffffffffffffffffffffffffffffffffff1681526020013073ffffffffffffffffffffffffffffffffffffffff1681526020018381526020016000151581526020014281526020013373ffffffffffffffffffffffffffffffffffffffff16815250600f6000858152602001908152602001600020600082015181600001556020820151816001019081613a2e91906155bb565b5060408201518160020160006101000a81548173ffffffffffffffffffffffffffffffffffffffff021916908373ffffffffffffffffffffffffffffffffffffffff16021790555060608201518160030160006101000a81548173ffffffffffffffffffffffffffffffffffffffff021916908373ffffffffffffffffffffffffffffffffffffffff1602179055506080820151816004015560a08201518160050160006101000a81548160ff02191690831515021790555060c0820151816006015560e08201518160070160006101000a81548173ffffffffffffffffffffffffffffffffffffffff021916908373ffffffffffffffffffffffffffffffffffffffff160217905550905050613b45600a61348e565b6000613b51600a613059565b90506040518060e001604052808281526020018581526020013373ffffffffffffffffffffffffffffffffffffffff1681526020013073ffffffffffffffffffffffffffffffffffffffff168152602001848152602001613bb18661277a565b815260200142815250600e6000838152602001908152602001600020600082015181600001556020820151816001015560408201518160020160006101000a81548173ffffffffffffffffffffffffffffffffffffffff021916908373ffffffffffffffffffffffffffffffffffffffff16021790555060608201518160030160006101000a81548173ffffffffffffffffffffffffffffffffffffffff021916908373ffffffffffffffffffffffffffffffffffffffff1602179055506080820151816004015560a0820151816005019081613c8e91906155bb565b5060c08201518160060155905050613ca73330866130fc565b807f4e2283166b7fb39296733c664e8b6ac0e713237cc1073943fef399e83d53889d85303387613cd68a61277a565b42604051613ce996959493929190616071565b60405180910390a2837fc46e98b4479b8a7df89bd20156de41a2657563db8b2907fc1a9fd139b07c0c6e8333308760004233604051613d2e97969594939291906160d9565b60405180910390a250505050565b606060405180602001604052806000815250905090565b6060613d5e82612f4d565b6000613d68613d3c565b90506000815111613d885760405180602001604052806000815250613db3565b80613d92846140af565b604051602001613da3929190615be9565b6040516020818303038152906040525b915050919050565b60008073ffffffffffffffffffffffffffffffffffffffff16613ddd836133f5565b73ffffffffffffffffffffffffffffffffffffffff1614159050919050565b6001811115613f1c57600073ffffffffffffffffffffffffffffffffffffffff168473ffffffffffffffffffffffffffffffffffffffff1614613e905780600360008673ffffffffffffffffffffffffffffffffffffffff1673ffffffffffffffffffffffffffffffffffffffff1681526020019081526020016000206000828254613e8891906152c4565b925050819055505b600073ffffffffffffffffffffffffffffffffffffffff168373ffffffffffffffffffffffffffffffffffffffff1614613f1b5780600360008573ffffffffffffffffffffffffffffffffffffffff1673ffffffffffffffffffffffffffffffffffffffff1681526020019081526020016000206000828254613f1391906152f8565b925050819055505b5b50505050565b50505050565b6000613f498473ffffffffffffffffffffffffffffffffffffffff1661417d565b156140a2578373ffffffffffffffffffffffffffffffffffffffff1663150b7a02613f72612f98565b8786866040518563ffffffff1660e01b8152600401613f9494939291906161a4565b6020604051808303816000875af1925050508015613fd057506040513d601f19601f82011682018060405250810190613fcd9190616205565b60015b614052573d8060008114614000576040519150601f19603f3d011682016040523d82523d6000602084013e614005565b606091505b50600081510361404a576040517f08c379a000000000000000000000000000000000000000000000000000000000815260040161404190615e7b565b60405180910390fd5b805181602001fd5b63150b7a0260e01b7bffffffffffffffffffffffffffffffffffffffffffffffffffffffff1916817bffffffffffffffffffffffffffffffffffffffffffffffffffffffff1916149150506140a7565b600190505b949350505050565b6060600060016140be846141a0565b01905060008167ffffffffffffffff8111156140dd576140dc614967565b5b6040519080825280601f01601f19166020018201604052801561410f5781602001600182028036833780820191505090505b509050600082602001820190505b600115614172578080600190039150507f3031323334353637383961626364656600000000000000000000000000000000600a86061a8153600a858161416657614165616232565b5b0494506000850361411d575b819350505050919050565b6000808273ffffffffffffffffffffffffffffffffffffffff163b119050919050565b600080600090507a184f03e93ff9f4daa797ed6e38ed64bf6a1f01000000000000000083106141fe577a184f03e93ff9f4daa797ed6e38ed64bf6a1f01000000000000000083816141f4576141f3616232565b5b0492506040810190505b6d04ee2d6d415b85acef8100000000831061423b576d04ee2d6d415b85acef8100000000838161423157614230616232565b5b0492506020810190505b662386f26fc10000831061426a57662386f26fc1000083816142605761425f616232565b5b0492506010810190505b6305f5e1008310614293576305f5e100838161428957614288616232565b5b0492506008810190505b61271083106142b85761271083816142ae576142ad616232565b5b0492506004810190505b606483106142db57606483816142d1576142d0616232565b5b0492506002810190505b600a83106142ea576001810190505b80915050919050565b6040518061010001604052806000815260200160608152602001600073ffffffffffffffffffffffffffffffffffffffff168152602001600073ffffffffffffffffffffffffffffffffffffffff1681526020016000815260200160001515815260200160008152602001600073ffffffffffffffffffffffffffffffffffffffff1681525090565b6040518060e001604052806000815260200160008152602001600073ffffffffffffffffffffffffffffffffffffffff168152602001600073ffffffffffffffffffffffffffffffffffffffff1681526020016000815260200160608152602001600081525090565b6000604051905090565b600080fd5b600080fd5b60007fffffffff0000000000000000000000000000000000000000000000000000000082169050919050565b61442e816143f9565b811461443957600080fd5b50565b60008135905061444b81614425565b92915050565b600060208284031215614467576144666143ef565b5b60006144758482850161443c565b91505092915050565b60008115159050919050565b6144938161447e565b82525050565b60006020820190506144ae600083018461448a565b92915050565b6000819050919050565b6144c7816144b4565b81146144d257600080fd5b50565b6000813590506144e4816144be565b92915050565b600060208284031215614500576144ff6143ef565b5b600061450e848285016144d5565b91505092915050565b614520816144b4565b82525050565b600073ffffffffffffffffffffffffffffffffffffffff82169050919050565b600061455182614526565b9050919050565b61456181614546565b82525050565b600081519050919050565b600082825260208201905092915050565b60005b838110156145a1578082015181840152602081019050614586565b60008484015250505050565b6000601f19601f8301169050919050565b60006145c982614567565b6145d38185614572565b93506145e3818560208601614583565b6145ec816145ad565b840191505092915050565b600060e08201905061460c600083018a614517565b6146196020830189614517565b6146266040830188614558565b6146336060830187614558565b6146406080830186614517565b81810360a083015261465281856145be565b905061466160c0830184614517565b98975050505050505050565b6000602082019050818103600083015261468781846145be565b905092915050565b60006020820190506146a46000830184614558565b92915050565b6146b381614546565b81146146be57600080fd5b50565b6000813590506146d0816146aa565b92915050565b600080604083850312156146ed576146ec6143ef565b5b60006146fb858286016146c1565b925050602061470c858286016144d5565b9150509250929050565b600081519050919050565b600082825260208201905092915050565b6000819050602082019050919050565b61474b816144b4565b82525050565b600082825260208201905092915050565b600061476d82614567565b6147778185614751565b9350614787818560208601614583565b614790816145ad565b840191505092915050565b60006147a682614526565b9050919050565b6147b68161479b565b82525050565b6147c58161447e565b82525050565b6147d481614546565b82525050565b6000610100830160008301516147f36000860182614742565b506020830151848203602086015261480b8282614762565b915050604083015161482060408601826147ad565b50606083015161483360608601826147ad565b5060808301516148466080860182614742565b5060a083015161485960a08601826147bc565b5060c083015161486c60c0860182614742565b5060e083015161487f60e08601826147cb565b508091505092915050565b600061489683836147da565b905092915050565b6000602082019050919050565b60006148b682614716565b6148c08185614721565b9350836020820285016148d285614732565b8060005b8581101561490e57848403895281516148ef858261488a565b94506148fa8361489e565b925060208a019950506001810190506148d6565b50829750879550505050505092915050565b6000602082019050818103600083015261493a81846148ab565b905092915050565b60006020820190506149576000830184614517565b92915050565b600080fd5b600080fd5b7f4e487b7100000000000000000000000000000000000000000000000000000000600052604160045260246000fd5b61499f826145ad565b810181811067ffffffffffffffff821117156149be576149bd614967565b5b80604052505050565b60006149d16143e5565b90506149dd8282614996565b919050565b600067ffffffffffffffff8211156149fd576149fc614967565b5b614a06826145ad565b9050602081019050919050565b82818337600083830152505050565b6000614a35614a30846149e2565b6149c7565b905082815260208101848484011115614a5157614a50614962565b5b614a5c848285614a13565b509392505050565b600082601f830112614a7957614a7861495d565b5b8135614a89848260208601614a22565b91505092915050565b60008060408385031215614aa957614aa86143ef565b5b6000614ab7858286016144d5565b925050602083013567ffffffffffffffff811115614ad857614ad76143f4565b5b614ae485828601614a64565b9150509250929050565b600080600060608486031215614b0757614b066143ef565b5b6000614b15868287016146c1565b9350506020614b26868287016146c1565b9250506040614b37868287016144d5565b9150509250925092565b600081519050919050565b600082825260208201905092915050565b6000819050602082019050919050565b600060e083016000830151614b856000860182614742565b506020830151614b986020860182614742565b506040830151614bab60408601826147cb565b506060830151614bbe60608601826147cb565b506080830151614bd16080860182614742565b5060a083015184820360a0860152614be98282614762565b91505060c0830151614bfe60c0860182614742565b508091505092915050565b6000614c158383614b6d565b905092915050565b6000602082019050919050565b6000614c3582614b41565b614c3f8185614b4c565b935083602082028501614c5185614b5d565b8060005b85811015614c8d5784840389528151614c6e8582614c09565b9450614c7983614c1d565b925060208a01995050600181019050614c55565b50829750879550505050505092915050565b60006020820190508181036000830152614cb98184614c2a565b905092915050565b6000608082019050614cd66000830187614517565b614ce36020830186614558565b8181036040830152614cf581856145be565b90508181036060830152614d0981846145be565b905095945050505050565b600060208284031215614d2a57614d296143ef565b5b6000614d38848285016146c1565b91505092915050565b60006060820190508181036000830152614d5b81866145be565b9050614d6a6020830185614517565b8181036040830152614d7c81846145be565b9050949350505050565b600080600060608486031215614d9f57614d9e6143ef565b5b6000614dad868287016144d5565b9350506020614dbe868287016144d5565b925050604084013567ffffffffffffffff811115614ddf57614dde6143f4565b5b614deb86828701614a64565b9150509250925092565b60008060408385031215614e0c57614e0b6143ef565b5b600083013567ffffffffffffffff811115614e2a57614e296143f4565b5b614e3685828601614a64565b925050602083013567ffffffffffffffff811115614e5757614e566143f4565b5b614e6385828601614a64565b9150509250929050565b614e768161447e565b8114614e8157600080fd5b50565b600081359050614e9381614e6d565b92915050565b60008060408385031215614eb057614eaf6143ef565b5b6000614ebe858286016146c1565b9250506020614ecf85828601614e84565b9150509250929050565b600060208284031215614eef57614eee6143ef565b5b600082013567ffffffffffffffff811115614f0d57614f0c6143f4565b5b614f1984828501614a64565b91505092915050565b600067ffffffffffffffff821115614f3d57614f3c614967565b5b614f46826145ad565b9050602081019050919050565b6000614f66614f6184614f22565b6149c7565b905082815260208101848484011115614f8257614f81614962565b5b614f8d848285614a13565b509392505050565b600082601f830112614faa57614fa961495d565b5b8135614fba848260208601614f53565b91505092915050565b60008060008060808587031215614fdd57614fdc6143ef565b5b6000614feb878288016146c1565b9450506020614ffc878288016146c1565b935050604061500d878288016144d5565b925050606085013567ffffffffffffffff81111561502e5761502d6143f4565b5b61503a87828801614f95565b91505092959194509250565b60008060006060848603121561505f5761505e6143ef565b5b600084013567ffffffffffffffff81111561507d5761507c6143f4565b5b61508986828701614a64565b935050602061509a868287016144d5565b925050604084013567ffffffffffffffff8111156150bb576150ba6143f4565b5b6150c786828701614a64565b9150509250925092565b600080604083850312156150e8576150e76143ef565b5b60006150f6858286016146c1565b9250506020615107858286016146c1565b9150509250929050565b7f4e487b7100000000000000000000000000000000000000000000000000000000600052602260045260246000fd5b6000600282049050600182168061515857607f821691505b60208210810361516b5761516a615111565b5b50919050565b7f4552433732313a20617070726f76616c20746f2063757272656e74206f776e6560008201527f7200000000000000000000000000000000000000000000000000000000000000602082015250565b60006151cd602183614572565b91506151d882615171565b604082019050919050565b600060208201905081810360008301526151fc816151c0565b9050919050565b7f4552433732313a20617070726f76652063616c6c6572206973206e6f7420746f60008201527f6b656e206f776e6572206f7220617070726f76656420666f7220616c6c000000602082015250565b600061525f603d83614572565b915061526a82615203565b604082019050919050565b6000602082019050818103600083015261528e81615252565b9050919050565b7f4e487b7100000000000000000000000000000000000000000000000000000000600052601160045260246000fd5b60006152cf826144b4565b91506152da836144b4565b92508282039050818111156152f2576152f1615295565b5b92915050565b6000615303826144b4565b915061530e836144b4565b925082820190508082111561532657615325615295565b5b92915050565b7f4e487b7100000000000000000000000000000000000000000000000000000000600052603260045260246000fd5b6000615366826144b4565b91507fffffffffffffffffffffffffffffffffffffffffffffffffffffffffffffffff820361539857615397615295565b5b600182019050919050565b7f546861742773206e6f7420796f7572206163636f756e74000000000000000000600082015250565b60006153d9601783614572565b91506153e4826153a3565b602082019050919050565b60006020820190508181036000830152615408816153cc565b9050919050565b60008190508160005260206000209050919050565b60006020601f8301049050919050565b600082821b905092915050565b6000600883026154717fffffffffffffffffffffffffffffffffffffffffffffffffffffffffffffffff82615434565b61547b8683615434565b95508019841693508086168417925050509392505050565b6000819050919050565b60006154b86154b36154ae846144b4565b615493565b6144b4565b9050919050565b6000819050919050565b6154d28361549d565b6154e66154de826154bf565b848454615441565b825550505050565b600090565b6154fb6154ee565b6155068184846154c9565b505050565b5b8181101561552a5761551f6000826154f3565b60018101905061550c565b5050565b601f82111561556f576155408161540f565b61554984615424565b81016020851015615558578190505b61556c61556485615424565b83018261550b565b50505b505050565b600082821c905092915050565b600061559260001984600802615574565b1980831691505092915050565b60006155ab8383615581565b9150826002028217905092915050565b6155c482614567565b67ffffffffffffffff8111156155dd576155dc614967565b5b6155e78254615140565b6155f282828561552e565b600060209050601f8311600181146156255760008415615613578287015190505b61561d858261559f565b865550615685565b601f1984166156338661540f565b60005b8281101561565b57848901518255600182019150602085019450602081019050615636565b868310156156785784890151615674601f891682615581565b8355505b6001600288020188555050505b505050505050565b7f4552433732313a2063616c6c6572206973206e6f7420746f6b656e206f776e6560008201527f72206f7220617070726f76656400000000000000000000000000000000000000602082015250565b60006156e9602d83614572565b91506156f48261568d565b604082019050919050565b60006020820190508181036000830152615718816156dc565b9050919050565b7f4552433732313a20696e76616c696420746f6b656e2049440000000000000000600082015250565b6000615755601883614572565b91506157608261571f565b602082019050919050565b6000602082019050818103600083015261578481615748565b9050919050565b7f4552433732313a2061646472657373207a65726f206973206e6f74206120766160008201527f6c6964206f776e65720000000000000000000000000000000000000000000000602082015250565b60006157e7602983614572565b91506157f28261578b565b604082019050919050565b60006020820190508181036000830152615816816157da565b9050919050565b7f4f6e6c79206974656d2063616e20726573656c6c2074686520746f6b656e0000600082015250565b6000615853601e83614572565b915061585e8261581d565b602082019050919050565b6000602082019050818103600083015261588281615846565b9050919050565b7f5072696365206d75737420626520657175616c20746f206c697374696e67207060008201527f7269636500000000000000000000000000000000000000000000000000000000602082015250565b60006158e5602483614572565b91506158f082615889565b604082019050919050565b60006020820190508181036000830152615914816158d8565b9050919050565b60006060820190506159306000830186614558565b818103602083015261594281856145be565b9050818103604083015261595681846145be565b9050949350505050565b7f4f6e6c79206d61726b6574706c616365206f776e65722063616e20757064617460008201527f6520746865206c697374696e6720707269636500000000000000000000000000602082015250565b60006159bc603383614572565b91506159c782615960565b604082019050919050565b600060208201905081810360008301526159eb816159af565b9050919050565b7f506c65617365207375626d6974207468652061736b696e67207072696365206960008201527f6e206f7264657220746f20636f6d706c65746520746865207075726368617365602082015250565b6000615a4e604083614572565b9150615a59826159f2565b604082019050919050565b60006020820190508181036000830152615a7d81615a41565b9050919050565b7f596f752063616e206e6f742062757920796f7572206f776e206e667400000000600082015250565b6000615aba601c83614572565b9150615ac582615a84565b602082019050919050565b60006020820190508181036000830152615ae981615aad565b9050919050565b6000615b0b615b06615b0184614526565b615493565b614526565b9050919050565b6000615b1d82615af0565b9050919050565b6000615b2f82615b12565b9050919050565b615b3f81615b24565b82525050565b600060c082019050615b5a6000830189614517565b615b676020830188614558565b615b746040830187615b36565b615b816060830186614517565b8181036080830152615b9381856145be565b9050615ba260a0830184614517565b979650505050505050565b600081905092915050565b6000615bc382614567565b615bcd8185615bad565b9350615bdd818560208601614583565b80840191505092915050565b6000615bf58285615bb8565b9150615c018284615bb8565b91508190509392505050565b7f4552433732313a207472616e736665722066726f6d20696e636f72726563742060008201527f6f776e6572000000000000000000000000000000000000000000000000000000602082015250565b6000615c69602583614572565b9150615c7482615c0d565b604082019050919050565b60006020820190508181036000830152615c9881615c5c565b9050919050565b7f4552433732313a207472616e7366657220746f20746865207a65726f2061646460008201527f7265737300000000000000000000000000000000000000000000000000000000602082015250565b6000615cfb602483614572565b9150615d0682615c9f565b604082019050919050565b60006020820190508181036000830152615d2a81615cee565b9050919050565b7f436f756e7465723a2064656372656d656e74206f766572666c6f770000000000600082015250565b6000615d67601b83614572565b9150615d7282615d31565b602082019050919050565b60006020820190508181036000830152615d9681615d5a565b9050919050565b7f4552433732313a20617070726f766520746f2063616c6c657200000000000000600082015250565b6000615dd3601983614572565b9150615dde82615d9d565b602082019050919050565b60006020820190508181036000830152615e0281615dc6565b9050919050565b7f4552433732313a207472616e7366657220746f206e6f6e20455243373231526560008201527f63656976657220696d706c656d656e7465720000000000000000000000000000602082015250565b6000615e65603283614572565b9150615e7082615e09565b604082019050919050565b60006020820190508181036000830152615e9481615e58565b9050919050565b7f4552433732313a206d696e7420746f20746865207a65726f2061646472657373600082015250565b6000615ed1602083614572565b9150615edc82615e9b565b602082019050919050565b60006020820190508181036000830152615f0081615ec4565b9050919050565b7f4552433732313a20746f6b656e20616c7265616479206d696e74656400000000600082015250565b6000615f3d601c83614572565b9150615f4882615f07565b602082019050919050565b60006020820190508181036000830152615f6c81615f30565b9050919050565b7f45524337323155524953746f726167653a2055524920736574206f66206e6f6e60008201527f6578697374656e7420746f6b656e000000000000000000000000000000000000602082015250565b6000615fcf602e83614572565b9150615fda82615f73565b604082019050919050565b60006020820190508181036000830152615ffe81615fc2565b9050919050565b7f5072696365206d7573742062652067726561746572207468616e203100000000600082015250565b600061603b601c83614572565b915061604682616005565b602082019050919050565b6000602082019050818103600083015261606a8161602e565b9050919050565b600060c0820190506160866000830189614517565b6160936020830188614558565b6160a06040830187614558565b6160ad6060830186614517565b81810360808301526160bf81856145be565b90506160ce60a0830184614517565b979650505050505050565b600060e08201905081810360008301526160f3818a6145be565b90506161026020830189614558565b61610f6040830188614558565b61611c6060830187614517565b616129608083018661448a565b61613660a0830185614517565b61614360c0830184614558565b98975050505050505050565b600081519050919050565b600082825260208201905092915050565b60006161768261614f565b616180818561615a565b9350616190818560208601614583565b616199816145ad565b840191505092915050565b60006080820190506161b96000830187614558565b6161c66020830186614558565b6161d36040830185614517565b81810360608301526161e5818461616b565b905095945050505050565b6000815190506161ff81614425565b92915050565b60006020828403121561621b5761621a6143ef565b5b6000616229848285016161f0565b91505092915050565b7f4e487b7100000000000000000000000000000000000000000000000000000000600052601260045260246000fdfea2646970667358221220be2f125626e046dff81fbe256da0956ca43774996f07f9defe00f551b7ca214e64736f6c63430008110033",
  "linkReferences": {},
  "deployedLinkReferences": {}
}