{
  "_format": "hh-sol-artifact-1",
  "contractName": "NFTMarketplace",
  "sourceName": "contracts/NFTMarketplace.sol",
  "abi": [
    {
      "inputs": [],
      "stateMutability": "nonpayable",
      "type": "constructor"
    },
    {
      "anonymous": false,
      "inputs": [
        {
          "indexed": true,
          "internalType": "address",
          "name": "owner",
          "type": "address"
        },
        {
          "indexed": true,
          "internalType": "address",
          "name": "approved",
          "type": "address"
        },
        {
          "indexed": true,
          "internalType": "uint256",
          "name": "tokenId",
          "type": "uint256"
        }
      ],
      "name": "Approval",
      "type": "event"
    },
    {
      "anonymous": false,
      "inputs": [
        {
          "indexed": true,
          "internalType": "address",
          "name": "owner",
          "type": "address"
        },
        {
          "indexed": true,
          "internalType": "address",
          "name": "operator",
          "type": "address"
        },
        {
          "indexed": false,
          "internalType": "bool",
          "name": "approved",
          "type": "bool"
        }
      ],
      "name": "ApprovalForAll",
      "type": "event"
    },
    {
      "anonymous": false,
      "inputs": [
        {
          "indexed": true,
          "internalType": "uint256",
          "name": "tokenId",
          "type": "uint256"
        },
        {
          "indexed": false,
          "internalType": "address",
          "name": "seller",
          "type": "address"
        },
        {
          "indexed": false,
          "internalType": "address",
          "name": "owner",
          "type": "address"
        },
        {
          "indexed": false,
          "internalType": "uint256",
          "name": "price",
          "type": "uint256"
        },
        {
          "indexed": false,
          "internalType": "bool",
          "name": "sold",
          "type": "bool"
        }
      ],
      "name": "MarketItemCreated",
      "type": "event"
    },
    {
      "anonymous": false,
      "inputs": [
        {
          "indexed": true,
          "internalType": "address",
          "name": "from",
          "type": "address"
        },
        {
          "indexed": true,
          "internalType": "address",
          "name": "to",
          "type": "address"
        },
        {
          "indexed": true,
          "internalType": "uint256",
          "name": "tokenId",
          "type": "uint256"
        }
      ],
      "name": "Transfer",
      "type": "event"
    },
    {
      "inputs": [
        {
          "internalType": "address",
          "name": "to",
          "type": "address"
        },
        {
          "internalType": "uint256",
          "name": "tokenId",
          "type": "uint256"
        }
      ],
      "name": "approve",
      "outputs": [],
      "stateMutability": "nonpayable",
      "type": "function"
    },
    {
      "inputs": [
        {
          "internalType": "address",
          "name": "owner",
          "type": "address"
        }
      ],
      "name": "balanceOf",
      "outputs": [
        {
          "internalType": "uint256",
          "name": "",
          "type": "uint256"
        }
      ],
      "stateMutability": "view",
      "type": "function"
    },
    {
      "inputs": [
        {
          "internalType": "uint256",
          "name": "tokenId",
          "type": "uint256"
        }
      ],
      "name": "createMarketSale",
      "outputs": [],
      "stateMutability": "payable",
      "type": "function"
    },
    {
      "inputs": [
        {
          "internalType": "string",
          "name": "tokenURI",
          "type": "string"
        },
        {
          "internalType": "uint256",
          "name": "price",
          "type": "uint256"
        }
      ],
      "name": "createToken",
      "outputs": [
        {
          "internalType": "uint256",
          "name": "",
          "type": "uint256"
        }
      ],
      "stateMutability": "payable",
      "type": "function"
    },
    {
      "inputs": [],
      "name": "fetchItemsListed",
      "outputs": [
        {
          "components": [
            {
              "internalType": "uint256",
              "name": "tokenId",
              "type": "uint256"
            },
            {
              "internalType": "address payable",
              "name": "seller",
              "type": "address"
            },
            {
              "internalType": "address payable",
              "name": "owner",
              "type": "address"
            },
            {
              "internalType": "uint256",
              "name": "price",
              "type": "uint256"
            },
            {
              "internalType": "bool",
              "name": "sold",
              "type": "bool"
            }
          ],
          "internalType": "struct NFTMarketplace.MarketItem[]",
          "name": "",
          "type": "tuple[]"
        }
      ],
      "stateMutability": "view",
      "type": "function"
    },
    {
      "inputs": [],
      "name": "fetchMarketItems",
      "outputs": [
        {
          "components": [
            {
              "internalType": "uint256",
              "name": "tokenId",
              "type": "uint256"
            },
            {
              "internalType": "address payable",
              "name": "seller",
              "type": "address"
            },
            {
              "internalType": "address payable",
              "name": "owner",
              "type": "address"
            },
            {
              "internalType": "uint256",
              "name": "price",
              "type": "uint256"
            },
            {
              "internalType": "bool",
              "name": "sold",
              "type": "bool"
            }
          ],
          "internalType": "struct NFTMarketplace.MarketItem[]",
          "name": "",
          "type": "tuple[]"
        }
      ],
      "stateMutability": "view",
      "type": "function"
    },
    {
      "inputs": [],
      "name": "fetchMyNFTS",
      "outputs": [
        {
          "components": [
            {
              "internalType": "uint256",
              "name": "tokenId",
              "type": "uint256"
            },
            {
              "internalType": "address payable",
              "name": "seller",
              "type": "address"
            },
            {
              "internalType": "address payable",
              "name": "owner",
              "type": "address"
            },
            {
              "internalType": "uint256",
              "name": "price",
              "type": "uint256"
            },
            {
              "internalType": "bool",
              "name": "sold",
              "type": "bool"
            }
          ],
          "internalType": "struct NFTMarketplace.MarketItem[]",
          "name": "",
          "type": "tuple[]"
        }
      ],
      "stateMutability": "view",
      "type": "function"
    },
    {
      "inputs": [
        {
          "internalType": "uint256",
          "name": "tokenId",
          "type": "uint256"
        }
      ],
      "name": "getApproved",
      "outputs": [
        {
          "internalType": "address",
          "name": "",
          "type": "address"
        }
      ],
      "stateMutability": "view",
      "type": "function"
    },
    {
      "inputs": [],
      "name": "getListingPrice",
      "outputs": [
        {
          "internalType": "uint256",
          "name": "",
          "type": "uint256"
        }
      ],
      "stateMutability": "view",
      "type": "function"
    },
    {
      "inputs": [
        {
          "internalType": "address",
          "name": "owner",
          "type": "address"
        },
        {
          "internalType": "address",
          "name": "operator",
          "type": "address"
        }
      ],
      "name": "isApprovedForAll",
      "outputs": [
        {
          "internalType": "bool",
          "name": "",
          "type": "bool"
        }
      ],
      "stateMutability": "view",
      "type": "function"
    },
    {
      "inputs": [],
      "name": "name",
      "outputs": [
        {
          "internalType": "string",
          "name": "",
          "type": "string"
        }
      ],
      "stateMutability": "view",
      "type": "function"
    },
    {
      "inputs": [
        {
          "internalType": "uint256",
          "name": "tokenId",
          "type": "uint256"
        }
      ],
      "name": "ownerOf",
      "outputs": [
        {
          "internalType": "address",
          "name": "",
          "type": "address"
        }
      ],
      "stateMutability": "view",
      "type": "function"
    },
    {
      "inputs": [
        {
          "internalType": "uint256",
          "name": "tokenId",
          "type": "uint256"
        },
        {
          "internalType": "uint256",
          "name": "price",
          "type": "uint256"
        }
      ],
      "name": "resellToken",
      "outputs": [],
      "stateMutability": "payable",
      "type": "function"
    },
    {
      "inputs": [
        {
          "internalType": "address",
          "name": "from",
          "type": "address"
        },
        {
          "internalType": "address",
          "name": "to",
          "type": "address"
        },
        {
          "internalType": "uint256",
          "name": "tokenId",
          "type": "uint256"
        }
      ],
      "name": "safeTransferFrom",
      "outputs": [],
      "stateMutability": "nonpayable",
      "type": "function"
    },
    {
      "inputs": [
        {
          "internalType": "address",
          "name": "from",
          "type": "address"
        },
        {
          "internalType": "address",
          "name": "to",
          "type": "address"
        },
        {
          "internalType": "uint256",
          "name": "tokenId",
          "type": "uint256"
        },
        {
          "internalType": "bytes",
          "name": "data",
          "type": "bytes"
        }
      ],
      "name": "safeTransferFrom",
      "outputs": [],
      "stateMutability": "nonpayable",
      "type": "function"
    },
    {
      "inputs": [
        {
          "internalType": "address",
          "name": "operator",
          "type": "address"
        },
        {
          "internalType": "bool",
          "name": "approved",
          "type": "bool"
        }
      ],
      "name": "setApprovalForAll",
      "outputs": [],
      "stateMutability": "nonpayable",
      "type": "function"
    },
    {
      "inputs": [
        {
          "internalType": "bytes4",
          "name": "interfaceId",
          "type": "bytes4"
        }
      ],
      "name": "supportsInterface",
      "outputs": [
        {
          "internalType": "bool",
          "name": "",
          "type": "bool"
        }
      ],
      "stateMutability": "view",
      "type": "function"
    },
    {
      "inputs": [],
      "name": "symbol",
      "outputs": [
        {
          "internalType": "string",
          "name": "",
          "type": "string"
        }
      ],
      "stateMutability": "view",
      "type": "function"
    },
    {
      "inputs": [
        {
          "internalType": "uint256",
          "name": "tokenId",
          "type": "uint256"
        }
      ],
      "name": "tokenURI",
      "outputs": [
        {
          "internalType": "string",
          "name": "",
          "type": "string"
        }
      ],
      "stateMutability": "view",
      "type": "function"
    },
    {
      "inputs": [
        {
          "internalType": "address",
          "name": "from",
          "type": "address"
        },
        {
          "internalType": "address",
          "name": "to",
          "type": "address"
        },
        {
          "internalType": "uint256",
          "name": "tokenId",
          "type": "uint256"
        }
      ],
      "name": "transferFrom",
      "outputs": [],
      "stateMutability": "nonpayable",
      "type": "function"
    },
    {
      "inputs": [
        {
          "internalType": "uint256",
          "name": "_listingPrice",
          "type": "uint256"
        }
      ],
      "name": "updateListingPrice",
      "outputs": [],
      "stateMutability": "payable",
      "type": "function"
    }
  ],
  "bytecode": "0x60806040526658d15e176280006009553480156200001c57600080fd5b506040518060400160405280600981526020017f334420546f6b656e7300000000000000000000000000000000000000000000008152506040518060400160405280600281526020017f334400000000000000000000000000000000000000000000000000000000000081525081600090816200009a919062000370565b508060019081620000ac919062000370565b50505033600a60006101000a81548173ffffffffffffffffffffffffffffffffffffffff021916908373ffffffffffffffffffffffffffffffffffffffff16021790555062000457565b600081519050919050565b7f4e487b7100000000000000000000000000000000000000000000000000000000600052604160045260246000fd5b7f4e487b7100000000000000000000000000000000000000000000000000000000600052602260045260246000fd5b600060028204905060018216806200017857607f821691505b6020821081036200018e576200018d62000130565b5b50919050565b60008190508160005260206000209050919050565b60006020601f8301049050919050565b600082821b905092915050565b600060088302620001f87fffffffffffffffffffffffffffffffffffffffffffffffffffffffffffffffff82620001b9565b620002048683620001b9565b95508019841693508086168417925050509392505050565b6000819050919050565b6000819050919050565b6000620002516200024b62000245846200021c565b62000226565b6200021c565b9050919050565b6000819050919050565b6200026d8362000230565b620002856200027c8262000258565b848454620001c6565b825550505050565b600090565b6200029c6200028d565b620002a981848462000262565b505050565b5b81811015620002d157620002c560008262000292565b600181019050620002af565b5050565b601f8211156200032057620002ea8162000194565b620002f584620001a9565b8101602085101562000305578190505b6200031d6200031485620001a9565b830182620002ae565b50505b505050565b600082821c905092915050565b6000620003456000198460080262000325565b1980831691505092915050565b600062000360838362000332565b9150826002028217905092915050565b6200037b82620000f6565b67ffffffffffffffff81111562000397576200039662000101565b5b620003a382546200015f565b620003b0828285620002d5565b600060209050601f831160018114620003e85760008415620003d3578287015190505b620003df858262000352565b8655506200044f565b601f198416620003f88662000194565b60005b828110156200042257848901518255600182019150602085019450602081019050620003fb565b868310156200044257848901516200043e601f89168262000332565b8355505b6001600288020188555050505b505050505050565b61441f80620004676000396000f3fe60806040526004361061012a5760003560e01c806370a08231116100ab578063ae677aa31161006f578063ae677aa3146103f9578063b88d4fde14610415578063be9af5361461043e578063c87b56dd1461045a578063e219fc7514610497578063e985e9c5146104b35761012a565b806370a082311461030d57806372b3b6201461034a5780637dc5dfcf1461037a57806395d89b41146103a5578063a22cb465146103d05761012a565b806312e85585116100f257806312e855851461022857806323b872dd1461025357806342842e0e1461027c57806345f8fa80146102a55780636352211e146102d05761012a565b806301ffc9a71461012f57806306fdde031461016c578063081812fc14610197578063095ea7b3146101d45780630f08efe0146101fd575b600080fd5b34801561013b57600080fd5b5061015660048036038101906101519190612d09565b6104f0565b6040516101639190612d51565b60405180910390f35b34801561017857600080fd5b506101816105d2565b60405161018e9190612dfc565b60405180910390f35b3480156101a357600080fd5b506101be60048036038101906101b99190612e54565b610664565b6040516101cb9190612ec2565b60405180910390f35b3480156101e057600080fd5b506101fb60048036038101906101f69190612f09565b6106aa565b005b34801561020957600080fd5b506102126107c1565b60405161021f919061309f565b60405180910390f35b34801561023457600080fd5b5061023d610a29565b60405161024a91906130d0565b60405180910390f35b34801561025f57600080fd5b5061027a600480360381019061027591906130eb565b610a33565b005b34801561028857600080fd5b506102a3600480360381019061029e91906130eb565b610a93565b005b3480156102b157600080fd5b506102ba610ab3565b6040516102c7919061309f565b60405180910390f35b3480156102dc57600080fd5b506102f760048036038101906102f29190612e54565b610d9f565b6040516103049190612ec2565b60405180910390f35b34801561031957600080fd5b50610334600480360381019061032f919061313e565b610e25565b60405161034191906130d0565b60405180910390f35b610364600480360381019061035f91906132a0565b610edc565b60405161037191906130d0565b60405180910390f35b34801561038657600080fd5b5061038f610f1e565b60405161039c919061309f565b60405180910390f35b3480156103b157600080fd5b506103ba6112fc565b6040516103c79190612dfc565b60405180910390f35b3480156103dc57600080fd5b506103f760048036038101906103f29190613328565b61138e565b005b610413600480360381019061040e9190612e54565b6113a4565b005b34801561042157600080fd5b5061043c60048036038101906104379190613409565b61143e565b005b61045860048036038101906104539190612e54565b6114a0565b005b34801561046657600080fd5b50610481600480360381019061047c9190612e54565b6116d8565b60405161048e9190612dfc565b60405180910390f35b6104b160048036038101906104ac919061348c565b6117ea565b005b3480156104bf57600080fd5b506104da60048036038101906104d591906134cc565b6119df565b6040516104e79190612d51565b60405180910390f35b60007f80ac58cd000000000000000000000000000000000000000000000000000000007bffffffffffffffffffffffffffffffffffffffffffffffffffffffff1916827bffffffffffffffffffffffffffffffffffffffffffffffffffffffff191614806105bb57507f5b5e139f000000000000000000000000000000000000000000000000000000007bffffffffffffffffffffffffffffffffffffffffffffffffffffffff1916827bffffffffffffffffffffffffffffffffffffffffffffffffffffffff1916145b806105cb57506105ca82611a73565b5b9050919050565b6060600080546105e19061353b565b80601f016020809104026020016040519081016040528092919081815260200182805461060d9061353b565b801561065a5780601f1061062f5761010080835404028352916020019161065a565b820191906000526020600020905b81548152906001019060200180831161063d57829003601f168201915b5050505050905090565b600061066f82611add565b6004600083815260200190815260200160002060009054906101000a900473ffffffffffffffffffffffffffffffffffffffff169050919050565b60006106b582610d9f565b90508073ffffffffffffffffffffffffffffffffffffffff168373ffffffffffffffffffffffffffffffffffffffff1603610725576040517f08c379a000000000000000000000000000000000000000000000000000000000815260040161071c906135de565b60405180910390fd5b8073ffffffffffffffffffffffffffffffffffffffff16610744611b28565b73ffffffffffffffffffffffffffffffffffffffff16148061077357506107728161076d611b28565b6119df565b5b6107b2576040517f08c379a00000000000000000000000000000000000000000000000000000000081526004016107a990613670565b60405180910390fd5b6107bc8383611b30565b505050565b606060006107cf6007611be9565b905060006107dd6008611be9565b6107e76007611be9565b6107f191906136bf565b90506000808267ffffffffffffffff8111156108105761080f613175565b5b60405190808252806020026020018201604052801561084957816020015b610836612c40565b81526020019060019003908161082e5790505b50905060005b84811015610a1e573073ffffffffffffffffffffffffffffffffffffffff16600b600060018461087f91906136f3565b815260200190815260200160002060020160009054906101000a900473ffffffffffffffffffffffffffffffffffffffff1673ffffffffffffffffffffffffffffffffffffffff1603610a0b5760006001826108db91906136f3565b90506000600b60008381526020019081526020016000209050806040518060a0016040529081600082015481526020016001820160009054906101000a900473ffffffffffffffffffffffffffffffffffffffff1673ffffffffffffffffffffffffffffffffffffffff1673ffffffffffffffffffffffffffffffffffffffff1681526020016002820160009054906101000a900473ffffffffffffffffffffffffffffffffffffffff1673ffffffffffffffffffffffffffffffffffffffff1673ffffffffffffffffffffffffffffffffffffffff168152602001600382015481526020016004820160009054906101000a900460ff1615151515815250508486815181106109ee576109ed613727565b5b6020026020010181905250600185610a0691906136f3565b945050505b8080610a1690613756565b91505061084f565b508094505050505090565b6000600954905090565b610a44610a3e611b28565b82611bf7565b610a83576040517f08c379a0000000000000000000000000000000000000000000000000000000008152600401610a7a90613810565b60405180910390fd5b610a8e838383611c8c565b505050565b610aae8383836040518060200160405280600081525061143e565b505050565b60606000610ac16007611be9565b905060008060005b83811015610b69573373ffffffffffffffffffffffffffffffffffffffff16600b6000600184610af991906136f3565b815260200190815260200160002060010160009054906101000a900473ffffffffffffffffffffffffffffffffffffffff1673ffffffffffffffffffffffffffffffffffffffff1603610b5657600183610b5391906136f3565b92505b8080610b6190613756565b915050610ac9565b5060008267ffffffffffffffff811115610b8657610b85613175565b5b604051908082528060200260200182016040528015610bbf57816020015b610bac612c40565b815260200190600190039081610ba45790505b50905060005b84811015610d94573373ffffffffffffffffffffffffffffffffffffffff16600b6000600184610bf591906136f3565b815260200190815260200160002060010160009054906101000a900473ffffffffffffffffffffffffffffffffffffffff1673ffffffffffffffffffffffffffffffffffffffff1603610d81576000600182610c5191906136f3565b90506000600b60008381526020019081526020016000209050806040518060a0016040529081600082015481526020016001820160009054906101000a900473ffffffffffffffffffffffffffffffffffffffff1673ffffffffffffffffffffffffffffffffffffffff1673ffffffffffffffffffffffffffffffffffffffff1681526020016002820160009054906101000a900473ffffffffffffffffffffffffffffffffffffffff1673ffffffffffffffffffffffffffffffffffffffff1673ffffffffffffffffffffffffffffffffffffffff168152602001600382015481526020016004820160009054906101000a900460ff161515151581525050848681518110610d6457610d63613727565b5b6020026020010181905250600185610d7c91906136f3565b945050505b8080610d8c90613756565b915050610bc5565b508094505050505090565b600080610dab83611f85565b9050600073ffffffffffffffffffffffffffffffffffffffff168173ffffffffffffffffffffffffffffffffffffffff1603610e1c576040517f08c379a0000000000000000000000000000000000000000000000000000000008152600401610e139061387c565b60405180910390fd5b80915050919050565b60008073ffffffffffffffffffffffffffffffffffffffff168273ffffffffffffffffffffffffffffffffffffffff1603610e95576040517f08c379a0000000000000000000000000000000000000000000000000000000008152600401610e8c9061390e565b60405180910390fd5b600360008373ffffffffffffffffffffffffffffffffffffffff1673ffffffffffffffffffffffffffffffffffffffff168152602001908152602001600020549050919050565b6000610ee86007611fc2565b6000610ef46007611be9565b9050610f003382611fd8565b610f0a81856121f5565b610f148184612262565b8091505092915050565b60606000610f2c6007611be9565b905060008060005b8381101561104d573373ffffffffffffffffffffffffffffffffffffffff16600b6000600184610f6491906136f3565b815260200190815260200160002060020160009054906101000a900473ffffffffffffffffffffffffffffffffffffffff1673ffffffffffffffffffffffffffffffffffffffff16148061102557503373ffffffffffffffffffffffffffffffffffffffff16600b6000600184610fdb91906136f3565b815260200190815260200160002060010160009054906101000a900473ffffffffffffffffffffffffffffffffffffffff1673ffffffffffffffffffffffffffffffffffffffff16145b1561103a5760018361103791906136f3565b92505b808061104590613756565b915050610f34565b5060008267ffffffffffffffff81111561106a57611069613175565b5b6040519080825280602002602001820160405280156110a357816020015b611090612c40565b8152602001906001900390816110885790505b50905060005b848110156112f1573373ffffffffffffffffffffffffffffffffffffffff16600b60006001846110d991906136f3565b815260200190815260200160002060020160009054906101000a900473ffffffffffffffffffffffffffffffffffffffff1673ffffffffffffffffffffffffffffffffffffffff16148061119a57503373ffffffffffffffffffffffffffffffffffffffff16600b600060018461115091906136f3565b815260200190815260200160002060010160009054906101000a900473ffffffffffffffffffffffffffffffffffffffff1673ffffffffffffffffffffffffffffffffffffffff16145b156112de5760006001826111ae91906136f3565b90506000600b60008381526020019081526020016000209050806040518060a0016040529081600082015481526020016001820160009054906101000a900473ffffffffffffffffffffffffffffffffffffffff1673ffffffffffffffffffffffffffffffffffffffff1673ffffffffffffffffffffffffffffffffffffffff1681526020016002820160009054906101000a900473ffffffffffffffffffffffffffffffffffffffff1673ffffffffffffffffffffffffffffffffffffffff1673ffffffffffffffffffffffffffffffffffffffff168152602001600382015481526020016004820160009054906101000a900460ff1615151515815250508486815181106112c1576112c0613727565b5b60200260200101819052506001856112d991906136f3565b945050505b80806112e990613756565b9150506110a9565b508094505050505090565b60606001805461130b9061353b565b80601f01602080910402602001604051908101604052809291908181526020018280546113379061353b565b80156113845780601f1061135957610100808354040283529160200191611384565b820191906000526020600020905b81548152906001019060200180831161136757829003601f168201915b5050505050905090565b6113a0611399611b28565b8383612465565b5050565b3373ffffffffffffffffffffffffffffffffffffffff16600a60009054906101000a900473ffffffffffffffffffffffffffffffffffffffff1673ffffffffffffffffffffffffffffffffffffffff1614611434576040517f08c379a000000000000000000000000000000000000000000000000000000000815260040161142b906139a0565b60405180910390fd5b8060098190555050565b61144f611449611b28565b83611bf7565b61148e576040517f08c379a000000000000000000000000000000000000000000000000000000000815260040161148590613810565b60405180910390fd5b61149a848484846125d1565b50505050565b6000600b60008381526020019081526020016000206003015490508034146114fd576040517f08c379a00000000000000000000000000000000000000000000000000000000081526004016114f490613a32565b60405180910390fd5b33600b600084815260200190815260200160002060020160006101000a81548173ffffffffffffffffffffffffffffffffffffffff021916908373ffffffffffffffffffffffffffffffffffffffff1602179055506001600b600084815260200190815260200160002060040160006101000a81548160ff0219169083151502179055506000600b600084815260200190815260200160002060010160006101000a81548173ffffffffffffffffffffffffffffffffffffffff021916908373ffffffffffffffffffffffffffffffffffffffff1602179055506115e16008611fc2565b6115ec303384611c8c565b600a60009054906101000a900473ffffffffffffffffffffffffffffffffffffffff1673ffffffffffffffffffffffffffffffffffffffff166108fc6009549081150290604051600060405180830381858888f19350505050158015611656573d6000803e3d6000fd5b50600b600083815260200190815260200160002060010160009054906101000a900473ffffffffffffffffffffffffffffffffffffffff1673ffffffffffffffffffffffffffffffffffffffff166108fc349081150290604051600060405180830381858888f193505050501580156116d3573d6000803e3d6000fd5b505050565b60606116e382611add565b60006006600084815260200190815260200160002080546117039061353b565b80601f016020809104026020016040519081016040528092919081815260200182805461172f9061353b565b801561177c5780601f106117515761010080835404028352916020019161177c565b820191906000526020600020905b81548152906001019060200180831161175f57829003601f168201915b50505050509050600061178d61262d565b905060008151036117a25781925050506117e5565b6000825111156117d75780826040516020016117bf929190613a8e565b604051602081830303815290604052925050506117e5565b6117e084612644565b925050505b919050565b3373ffffffffffffffffffffffffffffffffffffffff16600b600084815260200190815260200160002060020160009054906101000a900473ffffffffffffffffffffffffffffffffffffffff1673ffffffffffffffffffffffffffffffffffffffff161461188e576040517f08c379a000000000000000000000000000000000000000000000000000000000815260040161188590613afe565b60405180910390fd5b60095434146118d2576040517f08c379a00000000000000000000000000000000000000000000000000000000081526004016118c990613b90565b60405180910390fd5b6000600b600084815260200190815260200160002060040160006101000a81548160ff02191690831515021790555080600b60008481526020019081526020016000206003018190555033600b600084815260200190815260200160002060010160006101000a81548173ffffffffffffffffffffffffffffffffffffffff021916908373ffffffffffffffffffffffffffffffffffffffff16021790555030600b600084815260200190815260200160002060020160006101000a81548173ffffffffffffffffffffffffffffffffffffffff021916908373ffffffffffffffffffffffffffffffffffffffff1602179055506119d060086126ac565b6119db333084611c8c565b5050565b6000600560008473ffffffffffffffffffffffffffffffffffffffff1673ffffffffffffffffffffffffffffffffffffffff16815260200190815260200160002060008373ffffffffffffffffffffffffffffffffffffffff1673ffffffffffffffffffffffffffffffffffffffff16815260200190815260200160002060009054906101000a900460ff16905092915050565b60007f01ffc9a7000000000000000000000000000000000000000000000000000000007bffffffffffffffffffffffffffffffffffffffffffffffffffffffff1916827bffffffffffffffffffffffffffffffffffffffffffffffffffffffff1916149050919050565b611ae681612708565b611b25576040517f08c379a0000000000000000000000000000000000000000000000000000000008152600401611b1c9061387c565b60405180910390fd5b50565b600033905090565b816004600083815260200190815260200160002060006101000a81548173ffffffffffffffffffffffffffffffffffffffff021916908373ffffffffffffffffffffffffffffffffffffffff160217905550808273ffffffffffffffffffffffffffffffffffffffff16611ba383610d9f565b73ffffffffffffffffffffffffffffffffffffffff167f8c5be1e5ebec7d5bd14f71427d1e84f3dd0314c0f7b2291e5b200ac8c7c3b92560405160405180910390a45050565b600081600001549050919050565b600080611c0383610d9f565b90508073ffffffffffffffffffffffffffffffffffffffff168473ffffffffffffffffffffffffffffffffffffffff161480611c455750611c4481856119df565b5b80611c8357508373ffffffffffffffffffffffffffffffffffffffff16611c6b84610664565b73ffffffffffffffffffffffffffffffffffffffff16145b91505092915050565b8273ffffffffffffffffffffffffffffffffffffffff16611cac82610d9f565b73ffffffffffffffffffffffffffffffffffffffff1614611d02576040517f08c379a0000000000000000000000000000000000000000000000000000000008152600401611cf990613c22565b60405180910390fd5b600073ffffffffffffffffffffffffffffffffffffffff168273ffffffffffffffffffffffffffffffffffffffff1603611d71576040517f08c379a0000000000000000000000000000000000000000000000000000000008152600401611d6890613cb4565b60405180910390fd5b611d7e8383836001612749565b8273ffffffffffffffffffffffffffffffffffffffff16611d9e82610d9f565b73ffffffffffffffffffffffffffffffffffffffff1614611df4576040517f08c379a0000000000000000000000000000000000000000000000000000000008152600401611deb90613c22565b60405180910390fd5b6004600082815260200190815260200160002060006101000a81549073ffffffffffffffffffffffffffffffffffffffff02191690556001600360008573ffffffffffffffffffffffffffffffffffffffff1673ffffffffffffffffffffffffffffffffffffffff168152602001908152602001600020600082825403925050819055506001600360008473ffffffffffffffffffffffffffffffffffffffff1673ffffffffffffffffffffffffffffffffffffffff16815260200190815260200160002060008282540192505081905550816002600083815260200190815260200160002060006101000a81548173ffffffffffffffffffffffffffffffffffffffff021916908373ffffffffffffffffffffffffffffffffffffffff160217905550808273ffffffffffffffffffffffffffffffffffffffff168473ffffffffffffffffffffffffffffffffffffffff167fddf252ad1be2c89b69c2b068fc378daa952ba7f163c4a11628f55a4df523b3ef60405160405180910390a4611f80838383600161286f565b505050565b60006002600083815260200190815260200160002060009054906101000a900473ffffffffffffffffffffffffffffffffffffffff169050919050565b6001816000016000828254019250508190555050565b600073ffffffffffffffffffffffffffffffffffffffff168273ffffffffffffffffffffffffffffffffffffffff1603612047576040517f08c379a000000000000000000000000000000000000000000000000000000000815260040161203e90613d20565b60405180910390fd5b61205081612708565b15612090576040517f08c379a000000000000000000000000000000000000000000000000000000000815260040161208790613d8c565b60405180910390fd5b61209e600083836001612749565b6120a781612708565b156120e7576040517f08c379a00000000000000000000000000000000000000000000000000000000081526004016120de90613d8c565b60405180910390fd5b6001600360008473ffffffffffffffffffffffffffffffffffffffff1673ffffffffffffffffffffffffffffffffffffffff16815260200190815260200160002060008282540192505081905550816002600083815260200190815260200160002060006101000a81548173ffffffffffffffffffffffffffffffffffffffff021916908373ffffffffffffffffffffffffffffffffffffffff160217905550808273ffffffffffffffffffffffffffffffffffffffff16600073ffffffffffffffffffffffffffffffffffffffff167fddf252ad1be2c89b69c2b068fc378daa952ba7f163c4a11628f55a4df523b3ef60405160405180910390a46121f160008383600161286f565b5050565b6121fe82612708565b61223d576040517f08c379a000000000000000000000000000000000000000000000000000000000815260040161223490613e1e565b60405180910390fd5b8060066000848152602001908152602001600020908161225d9190613fea565b505050565b600081116122a5576040517f08c379a000000000000000000000000000000000000000000000000000000000815260040161229c90614108565b60405180910390fd5b60095434146122e9576040517f08c379a00000000000000000000000000000000000000000000000000000000081526004016122e090613b90565b60405180910390fd5b6040518060a001604052808381526020013373ffffffffffffffffffffffffffffffffffffffff1681526020013073ffffffffffffffffffffffffffffffffffffffff16815260200182815260200160001515815250600b60008481526020019081526020016000206000820151816000015560208201518160010160006101000a81548173ffffffffffffffffffffffffffffffffffffffff021916908373ffffffffffffffffffffffffffffffffffffffff16021790555060408201518160020160006101000a81548173ffffffffffffffffffffffffffffffffffffffff021916908373ffffffffffffffffffffffffffffffffffffffff1602179055506060820151816003015560808201518160040160006101000a81548160ff021916908315150217905550905050612422333084611c8c565b817fb640004f1d14576d0c209e240cad0410e0d8c0c33a09375861fbadae2588a98d33308460006040516124599493929190614128565b60405180910390a25050565b8173ffffffffffffffffffffffffffffffffffffffff168373ffffffffffffffffffffffffffffffffffffffff16036124d3576040517f08c379a00000000000000000000000000000000000000000000000000000000081526004016124ca906141b9565b60405180910390fd5b80600560008573ffffffffffffffffffffffffffffffffffffffff1673ffffffffffffffffffffffffffffffffffffffff16815260200190815260200160002060008473ffffffffffffffffffffffffffffffffffffffff1673ffffffffffffffffffffffffffffffffffffffff16815260200190815260200160002060006101000a81548160ff0219169083151502179055508173ffffffffffffffffffffffffffffffffffffffff168373ffffffffffffffffffffffffffffffffffffffff167f17307eab39ab6107e8899845ad3d59bd9653f200f220920489ca2b5937696c31836040516125c49190612d51565b60405180910390a3505050565b6125dc848484611c8c565b6125e884848484612875565b612627576040517f08c379a000000000000000000000000000000000000000000000000000000000815260040161261e9061424b565b60405180910390fd5b50505050565b606060405180602001604052806000815250905090565b606061264f82611add565b600061265961262d565b9050600081511161267957604051806020016040528060008152506126a4565b80612683846129fc565b604051602001612694929190613a8e565b6040516020818303038152906040525b915050919050565b600081600001549050600081116126f8576040517f08c379a00000000000000000000000000000000000000000000000000000000081526004016126ef906142b7565b60405180910390fd5b6001810382600001819055505050565b60008073ffffffffffffffffffffffffffffffffffffffff1661272a83611f85565b73ffffffffffffffffffffffffffffffffffffffff1614159050919050565b600181111561286957600073ffffffffffffffffffffffffffffffffffffffff168473ffffffffffffffffffffffffffffffffffffffff16146127dd5780600360008673ffffffffffffffffffffffffffffffffffffffff1673ffffffffffffffffffffffffffffffffffffffff16815260200190815260200160002060008282546127d591906136bf565b925050819055505b600073ffffffffffffffffffffffffffffffffffffffff168373ffffffffffffffffffffffffffffffffffffffff16146128685780600360008573ffffffffffffffffffffffffffffffffffffffff1673ffffffffffffffffffffffffffffffffffffffff168152602001908152602001600020600082825461286091906136f3565b925050819055505b5b50505050565b50505050565b60006128968473ffffffffffffffffffffffffffffffffffffffff16612aca565b156129ef578373ffffffffffffffffffffffffffffffffffffffff1663150b7a026128bf611b28565b8786866040518563ffffffff1660e01b81526004016128e1949392919061432c565b6020604051808303816000875af192505050801561291d57506040513d601f19601f8201168201806040525081019061291a919061438d565b60015b61299f573d806000811461294d576040519150601f19603f3d011682016040523d82523d6000602084013e612952565b606091505b506000815103612997576040517f08c379a000000000000000000000000000000000000000000000000000000000815260040161298e9061424b565b60405180910390fd5b805181602001fd5b63150b7a0260e01b7bffffffffffffffffffffffffffffffffffffffffffffffffffffffff1916817bffffffffffffffffffffffffffffffffffffffffffffffffffffffff1916149150506129f4565b600190505b949350505050565b606060006001612a0b84612aed565b01905060008167ffffffffffffffff811115612a2a57612a29613175565b5b6040519080825280601f01601f191660200182016040528015612a5c5781602001600182028036833780820191505090505b509050600082602001820190505b600115612abf578080600190039150507f3031323334353637383961626364656600000000000000000000000000000000600a86061a8153600a8581612ab357612ab26143ba565b5b04945060008503612a6a575b819350505050919050565b6000808273ffffffffffffffffffffffffffffffffffffffff163b119050919050565b600080600090507a184f03e93ff9f4daa797ed6e38ed64bf6a1f0100000000000000008310612b4b577a184f03e93ff9f4daa797ed6e38ed64bf6a1f0100000000000000008381612b4157612b406143ba565b5b0492506040810190505b6d04ee2d6d415b85acef81000000008310612b88576d04ee2d6d415b85acef81000000008381612b7e57612b7d6143ba565b5b0492506020810190505b662386f26fc100008310612bb757662386f26fc100008381612bad57612bac6143ba565b5b0492506010810190505b6305f5e1008310612be0576305f5e1008381612bd657612bd56143ba565b5b0492506008810190505b6127108310612c05576127108381612bfb57612bfa6143ba565b5b0492506004810190505b60648310612c285760648381612c1e57612c1d6143ba565b5b0492506002810190505b600a8310612c37576001810190505b80915050919050565b6040518060a0016040528060008152602001600073ffffffffffffffffffffffffffffffffffffffff168152602001600073ffffffffffffffffffffffffffffffffffffffff168152602001600081526020016000151581525090565b6000604051905090565b600080fd5b600080fd5b60007fffffffff0000000000000000000000000000000000000000000000000000000082169050919050565b612ce681612cb1565b8114612cf157600080fd5b50565b600081359050612d0381612cdd565b92915050565b600060208284031215612d1f57612d1e612ca7565b5b6000612d2d84828501612cf4565b91505092915050565b60008115159050919050565b612d4b81612d36565b82525050565b6000602082019050612d666000830184612d42565b92915050565b600081519050919050565b600082825260208201905092915050565b60005b83811015612da6578082015181840152602081019050612d8b565b60008484015250505050565b6000601f19601f8301169050919050565b6000612dce82612d6c565b612dd88185612d77565b9350612de8818560208601612d88565b612df181612db2565b840191505092915050565b60006020820190508181036000830152612e168184612dc3565b905092915050565b6000819050919050565b612e3181612e1e565b8114612e3c57600080fd5b50565b600081359050612e4e81612e28565b92915050565b600060208284031215612e6a57612e69612ca7565b5b6000612e7884828501612e3f565b91505092915050565b600073ffffffffffffffffffffffffffffffffffffffff82169050919050565b6000612eac82612e81565b9050919050565b612ebc81612ea1565b82525050565b6000602082019050612ed76000830184612eb3565b92915050565b612ee681612ea1565b8114612ef157600080fd5b50565b600081359050612f0381612edd565b92915050565b60008060408385031215612f2057612f1f612ca7565b5b6000612f2e85828601612ef4565b9250506020612f3f85828601612e3f565b9150509250929050565b600081519050919050565b600082825260208201905092915050565b6000819050602082019050919050565b612f7e81612e1e565b82525050565b6000612f8f82612e81565b9050919050565b612f9f81612f84565b82525050565b612fae81612d36565b82525050565b60a082016000820151612fca6000850182612f75565b506020820151612fdd6020850182612f96565b506040820151612ff06040850182612f96565b5060608201516130036060850182612f75565b5060808201516130166080850182612fa5565b50505050565b60006130288383612fb4565b60a08301905092915050565b6000602082019050919050565b600061304c82612f49565b6130568185612f54565b935061306183612f65565b8060005b83811015613092578151613079888261301c565b975061308483613034565b925050600181019050613065565b5085935050505092915050565b600060208201905081810360008301526130b98184613041565b905092915050565b6130ca81612e1e565b82525050565b60006020820190506130e560008301846130c1565b92915050565b60008060006060848603121561310457613103612ca7565b5b600061311286828701612ef4565b935050602061312386828701612ef4565b925050604061313486828701612e3f565b9150509250925092565b60006020828403121561315457613153612ca7565b5b600061316284828501612ef4565b91505092915050565b600080fd5b600080fd5b7f4e487b7100000000000000000000000000000000000000000000000000000000600052604160045260246000fd5b6131ad82612db2565b810181811067ffffffffffffffff821117156131cc576131cb613175565b5b80604052505050565b60006131df612c9d565b90506131eb82826131a4565b919050565b600067ffffffffffffffff82111561320b5761320a613175565b5b61321482612db2565b9050602081019050919050565b82818337600083830152505050565b600061324361323e846131f0565b6131d5565b90508281526020810184848401111561325f5761325e613170565b5b61326a848285613221565b509392505050565b600082601f8301126132875761328661316b565b5b8135613297848260208601613230565b91505092915050565b600080604083850312156132b7576132b6612ca7565b5b600083013567ffffffffffffffff8111156132d5576132d4612cac565b5b6132e185828601613272565b92505060206132f285828601612e3f565b9150509250929050565b61330581612d36565b811461331057600080fd5b50565b600081359050613322816132fc565b92915050565b6000806040838503121561333f5761333e612ca7565b5b600061334d85828601612ef4565b925050602061335e85828601613313565b9150509250929050565b600067ffffffffffffffff82111561338357613382613175565b5b61338c82612db2565b9050602081019050919050565b60006133ac6133a784613368565b6131d5565b9050828152602081018484840111156133c8576133c7613170565b5b6133d3848285613221565b509392505050565b600082601f8301126133f0576133ef61316b565b5b8135613400848260208601613399565b91505092915050565b6000806000806080858703121561342357613422612ca7565b5b600061343187828801612ef4565b945050602061344287828801612ef4565b935050604061345387828801612e3f565b925050606085013567ffffffffffffffff81111561347457613473612cac565b5b613480878288016133db565b91505092959194509250565b600080604083850312156134a3576134a2612ca7565b5b60006134b185828601612e3f565b92505060206134c285828601612e3f565b9150509250929050565b600080604083850312156134e3576134e2612ca7565b5b60006134f185828601612ef4565b925050602061350285828601612ef4565b9150509250929050565b7f4e487b7100000000000000000000000000000000000000000000000000000000600052602260045260246000fd5b6000600282049050600182168061355357607f821691505b6020821081036135665761356561350c565b5b50919050565b7f4552433732313a20617070726f76616c20746f2063757272656e74206f776e6560008201527f7200000000000000000000000000000000000000000000000000000000000000602082015250565b60006135c8602183612d77565b91506135d38261356c565b604082019050919050565b600060208201905081810360008301526135f7816135bb565b9050919050565b7f4552433732313a20617070726f76652063616c6c6572206973206e6f7420746f60008201527f6b656e206f776e6572206f7220617070726f76656420666f7220616c6c000000602082015250565b600061365a603d83612d77565b9150613665826135fe565b604082019050919050565b600060208201905081810360008301526136898161364d565b9050919050565b7f4e487b7100000000000000000000000000000000000000000000000000000000600052601160045260246000fd5b60006136ca82612e1e565b91506136d583612e1e565b92508282039050818111156136ed576136ec613690565b5b92915050565b60006136fe82612e1e565b915061370983612e1e565b925082820190508082111561372157613720613690565b5b92915050565b7f4e487b7100000000000000000000000000000000000000000000000000000000600052603260045260246000fd5b600061376182612e1e565b91507fffffffffffffffffffffffffffffffffffffffffffffffffffffffffffffffff820361379357613792613690565b5b600182019050919050565b7f4552433732313a2063616c6c6572206973206e6f7420746f6b656e206f776e6560008201527f72206f7220617070726f76656400000000000000000000000000000000000000602082015250565b60006137fa602d83612d77565b91506138058261379e565b604082019050919050565b60006020820190508181036000830152613829816137ed565b9050919050565b7f4552433732313a20696e76616c696420746f6b656e2049440000000000000000600082015250565b6000613866601883612d77565b915061387182613830565b602082019050919050565b6000602082019050818103600083015261389581613859565b9050919050565b7f4552433732313a2061646472657373207a65726f206973206e6f74206120766160008201527f6c6964206f776e65720000000000000000000000000000000000000000000000602082015250565b60006138f8602983612d77565b91506139038261389c565b604082019050919050565b60006020820190508181036000830152613927816138eb565b9050919050565b7f4f6e6c79206d61726b6574706c616365206f776e65722063616e20757064617460008201527f6520746865206c697374696e6720707269636500000000000000000000000000602082015250565b600061398a603383612d77565b91506139958261392e565b604082019050919050565b600060208201905081810360008301526139b98161397d565b9050919050565b7f506c65617365207375626d6974207468652061736b696e67207072696365206960008201527f6e206f7264657220746f20636f6d706c65746520746865207075726368617365602082015250565b6000613a1c604083612d77565b9150613a27826139c0565b604082019050919050565b60006020820190508181036000830152613a4b81613a0f565b9050919050565b600081905092915050565b6000613a6882612d6c565b613a728185613a52565b9350613a82818560208601612d88565b80840191505092915050565b6000613a9a8285613a5d565b9150613aa68284613a5d565b91508190509392505050565b7f4f6e6c79206974656d2063616e20726573656c6c2074686520746f6b656e0000600082015250565b6000613ae8601e83612d77565b9150613af382613ab2565b602082019050919050565b60006020820190508181036000830152613b1781613adb565b9050919050565b7f5072696365206d75737420626520657175616c20746f206c697374696e67207060008201527f7269636500000000000000000000000000000000000000000000000000000000602082015250565b6000613b7a602483612d77565b9150613b8582613b1e565b604082019050919050565b60006020820190508181036000830152613ba981613b6d565b9050919050565b7f4552433732313a207472616e736665722066726f6d20696e636f72726563742060008201527f6f776e6572000000000000000000000000000000000000000000000000000000602082015250565b6000613c0c602583612d77565b9150613c1782613bb0565b604082019050919050565b60006020820190508181036000830152613c3b81613bff565b9050919050565b7f4552433732313a207472616e7366657220746f20746865207a65726f2061646460008201527f7265737300000000000000000000000000000000000000000000000000000000602082015250565b6000613c9e602483612d77565b9150613ca982613c42565b604082019050919050565b60006020820190508181036000830152613ccd81613c91565b9050919050565b7f4552433732313a206d696e7420746f20746865207a65726f2061646472657373600082015250565b6000613d0a602083612d77565b9150613d1582613cd4565b602082019050919050565b60006020820190508181036000830152613d3981613cfd565b9050919050565b7f4552433732313a20746f6b656e20616c7265616479206d696e74656400000000600082015250565b6000613d76601c83612d77565b9150613d8182613d40565b602082019050919050565b60006020820190508181036000830152613da581613d69565b9050919050565b7f45524337323155524953746f726167653a2055524920736574206f66206e6f6e60008201527f6578697374656e7420746f6b656e000000000000000000000000000000000000602082015250565b6000613e08602e83612d77565b9150613e1382613dac565b604082019050919050565b60006020820190508181036000830152613e3781613dfb565b9050919050565b60008190508160005260206000209050919050565b60006020601f8301049050919050565b600082821b905092915050565b600060088302613ea07fffffffffffffffffffffffffffffffffffffffffffffffffffffffffffffffff82613e63565b613eaa8683613e63565b95508019841693508086168417925050509392505050565b6000819050919050565b6000613ee7613ee2613edd84612e1e565b613ec2565b612e1e565b9050919050565b6000819050919050565b613f0183613ecc565b613f15613f0d82613eee565b848454613e70565b825550505050565b600090565b613f2a613f1d565b613f35818484613ef8565b505050565b5b81811015613f5957613f4e600082613f22565b600181019050613f3b565b5050565b601f821115613f9e57613f6f81613e3e565b613f7884613e53565b81016020851015613f87578190505b613f9b613f9385613e53565b830182613f3a565b50505b505050565b600082821c905092915050565b6000613fc160001984600802613fa3565b1980831691505092915050565b6000613fda8383613fb0565b9150826002028217905092915050565b613ff382612d6c565b67ffffffffffffffff81111561400c5761400b613175565b5b614016825461353b565b614021828285613f5d565b600060209050601f8311600181146140545760008415614042578287015190505b61404c8582613fce565b8655506140b4565b601f19841661406286613e3e565b60005b8281101561408a57848901518255600182019150602085019450602081019050614065565b868310156140a757848901516140a3601f891682613fb0565b8355505b6001600288020188555050505b505050505050565b7f5072696365206d7573742062652067726561746572207468616e203100000000600082015250565b60006140f2601c83612d77565b91506140fd826140bc565b602082019050919050565b60006020820190508181036000830152614121816140e5565b9050919050565b600060808201905061413d6000830187612eb3565b61414a6020830186612eb3565b61415760408301856130c1565b6141646060830184612d42565b95945050505050565b7f4552433732313a20617070726f766520746f2063616c6c657200000000000000600082015250565b60006141a3601983612d77565b91506141ae8261416d565b602082019050919050565b600060208201905081810360008301526141d281614196565b9050919050565b7f4552433732313a207472616e7366657220746f206e6f6e20455243373231526560008201527f63656976657220696d706c656d656e7465720000000000000000000000000000602082015250565b6000614235603283612d77565b9150614240826141d9565b604082019050919050565b6000602082019050818103600083015261426481614228565b9050919050565b7f436f756e7465723a2064656372656d656e74206f766572666c6f770000000000600082015250565b60006142a1601b83612d77565b91506142ac8261426b565b602082019050919050565b600060208201905081810360008301526142d081614294565b9050919050565b600081519050919050565b600082825260208201905092915050565b60006142fe826142d7565b61430881856142e2565b9350614318818560208601612d88565b61432181612db2565b840191505092915050565b60006080820190506143416000830187612eb3565b61434e6020830186612eb3565b61435b60408301856130c1565b818103606083015261436d81846142f3565b905095945050505050565b60008151905061438781612cdd565b92915050565b6000602082840312156143a3576143a2612ca7565b5b60006143b184828501614378565b91505092915050565b7f4e487b7100000000000000000000000000000000000000000000000000000000600052601260045260246000fdfea264697066735822122006254d74db044dc7c86aff091f2e4e31472a8619859e8127ce5e0e94bdd41aa364736f6c63430008110033",
  "linkReferences": {},
  "deployedLinkReferences": {}
}